:020000040000FA
:06000000E2EF65F01200C2
:020006001200E6
:0600080063EF5EF0120040
:02000E000004EC
:04001000A300000049
:0400140000000000E8
:0600180006EF5EF012008D
:02001E000900D7
:100020000BCC0000D40200000100000009CC00004D
:10003000D00200000200000008CC0000D302000043
:100040000100000004CC0000CA020000040000000F
:1000500002CC0000CE02000002000000FACB00003B
:10006000BA0200000800000053770000D20200002E
:1000700001000000F8CB00005E0F0000020000004D
:0C00800014000000C60200000400000094
:04008C000E014551CB
:100090000F015E5D01E140D0FE0E5E5D1BE01C0EB7
:1000A000E66EE66A290EE66E0E0EE66E5E511C0DD9
:1000B000F3CF14F0F4CF15F0000E14260F0E152216
:1000C00014C0E6FF15C0E6FF0EEC61F0166E060EDA
:1000D000E15E165045CE5EFFFE0E0E01455D01E16C
:1000E0001BD01C0EE66EE66A45511C0DF3CF14F0D2
:1000F000F4CF15F0000E14260F0E152214C0E6FFE3
:1001000015C0E6FF290EE66E0E0EE66E0EEC61F0EF
:10011000166E060EE15E165012000F015E515F5D15
:1001200001E14FD0FE0E5F5D32E0270E0E01C56F7C
:10013000C66B0E01010EC46F0E01020EC26F0E0ED1
:10014000C36F0F015F511C0DF3CFE9FFF4CFEAFF3E
:10015000000EE9260F0EEA221B0EE926000EEA2207
:10016000EFCFC1FE5F511C0DF3CFE9FFF4CFEAFFE3
:10017000000EE9260F0EEA22EECFBFFEEFCFC0FE43
:100180000E01270EBF5F000EC05B7EEC21F05ECF3C
:100190005FFF270E0E01C56FC66B44CEC4FE29CE8D
:1001A000C2FE2ACEC3FE0E01C25F000EC35B0E016B
:1001B000010EC16F0E01020EBF6F0E0EC06F7EECFE
:1001C00021F012000C01280E1D6F1B0E1E6F0E0178
:1001D000005101110FE145EC4FF006C000FE07C0D1
:1001E00001FEFF0E0E010017070E0117000E00277B
:1001F000040E01233C0EE66EE66AE66AC40EE66E65
:10020000010EE66E5CEC61F0146E050EE15E1450BA
:100210000C01156B146B1451146E156A030E145CEB
:10022000000E155801E326D114CC45FE2FDFE00E59
:10023000146ECB0E156E000E166E14CC17F0186AE5
:10024000196A060E0C6E0D6A0E6A17C007F018C008
:1002500008F019C009F0B7EC64F004C017F005C04D
:1002600018F006C019F014501724F36E155018201A
:10027000F46E16501920F86EF4CFF7FFF3CFF6FFA7
:10028000F62A000EF722F8220800F5CF1CFCE00E3B
:10029000146ECB0E156E000E166E14CC17F0186A85
:1002A000196A060E0C6E0D6A0E6A17C007F018C0A8
:1002B00008F019C009F0B7EC64F004C017F005C0ED
:1002C00018F006C019F014501724F36E15501820BA
:1002D000F46E16501920F86EF4CFF7FFF3CFF6FF47
:1002E000020EF626000EF722F8220900F5CF16FCC2
:1002F0000A00F5CF17FCE00E146ECB0E156E000E43
:10030000166E14CC17F0186A196A060E0C6E0D6A78
:100310000E6A17C007F018C008F019C009F0B7EC52
:1003200064F004C017F005C018F006C019F01450AE
:100330001724F36E15501820F46E16501920F86E1D
:10034000F4CFF7FFF3CFF6FF040EF626000EF722E8
:10035000F8220900F5CF18FC0A00F5CF19FC0C01B2
:100360001C5101E086D01DCC1AFC1ECC1BFC270EB4
:10037000176A1625166E17511722010E1626000E43
:10038000172216501825146E17501921156E010EDC
:100390001426000E152214501D2715501E231DCCA7
:1003A00014F01ECC15F0166A176AD880000E14548B
:1003B0001F0E1554000E1654000E175401E2EFD70D
:1003C0001CCC44FE270E0C011A250E01296F000ECD
:1003D0000C011B210E012A6F29510C0116250E015B
:1003E0002B6F2A510C0117210E012C6F010E2B27A8
:1003F000000E2C232B510C0118250E012D6F2C51B2
:100400000C0119210E012E6F0D0E3F6F409785DEF6
:10041000E00E146ECB0E156E000E166E14CC17F097
:10042000186A196A060E0C6E0D6A0E6A17C007F07C
:1004300018C008F019C009F0B7EC64F004C017F058
:1004400005C018F006C019F014501724F36E1550AB
:100450001820F46E16501920F86EF4CFF7FFF3CF82
:10046000F6FF0800F5CF28FE95EC17F00C01142BD1
:10047000D2D6FFD712000C012B6B2B51146E156ACC
:10048000030E145C000E155801E3B3D02BCC45FECF
:10049000FDDD0D0E0E013F5D01E0A8D03EDE0E0138
:1004A0004D51285D01E0A2D0180E256F020E266F77
:1004B0004A510CE14BCE12FE4CCE13FE4087040E87
:1004C0003F6F4BCE42FE4CCE43FE8DD0000E005D02
:1004D000040E015906E3880ED8800055130E01550D
:1004E00003E2006B040E016F00CE12FE01CE13FE7C
:1004F000002B000E01234BCE10FE4CCE11FED5EC8E
:1005000063F006C037FE07C038FE08C039FE09C0D8
:100510003AFE0E0140894A51040A26E0070A01E02A
:1005200062D048514625166E49514721176E165024
:100530004B25146E17504C21156E14501219426F32
:1005400015501319436F46CE18FE47CE19FE48CEFC
:100550001AFE49CE1BFE276B2D0E026F036B046B38
:10056000056B020E3F6F3FD046CEE9FF47CEEAFF54
:10057000020EE926000EEA22EECF18F0EFCF19F0B6
:1005800046CEE9FF47CEEAFF1850EE24166E19500A
:10059000EE20176E16504B25146E17504C21156E19
:1005A00014501219426F15501319436F0A0EE66E5C
:1005B000E66A46CEE6FF47CEE6FF180EE66E0E0E62
:1005C000E66E0EEC61F0146E060EE15E14500E0144
:1005D000050E3F6F0E01010EAE6F0E01020EAD6FE4
:1005E0004AEC11F000D00C012B5105D00C012B2B43
:1005F00044D7FE0E00D012000E014E51146E156A43
:10060000030E145C000E155802E3010E0BD04ECE03
:1006100045FE3CDD0E0141A903D04199010E02D0F7
:10062000000E00D012000E014F51146E156A030E19
:10063000145C000E155802E3000E0BD04FCE45FEA1
:1006400025DD070E0E013F5D02E0000E01D0010E18
:1006500000D012000E015051146E156A030E145C86
:10066000000E155801E35CD050CE45FE0FDD33CEB1
:1006700035FE34CE36FE0E013F51080A47E0010A2E
:1006800045E0050A43E0020A3EE0050A26E00D0ABD
:100690000EE0010A0CE0070A07E0020A05E0010A81
:1006A00003E0060A01E032D095EC17F039D00E01D4
:1006B000010EAE6F0E01110EAD6F4AEC11F00E017E
:1006C0001451151101E106D00E512F1902E10F51FD
:1006D0003019EDE1080E3F6F23D00E01010EAE6F11
:1006E0000E01110EAD6F4AEC11F00E0114511511EF
:1006F00001E106D00E512F1902E10F513019EDE141
:100700000C0E3F6F0DD00D0E3F6F0AD00E01AE6B79
:100710000E01140EAD6F4AEC11F095EC17F000D0FD
:1007200012000E015151146E156A030E145C000E76
:10073000155801E308D051CE45FEA8DC0E014097C4
:1007400051CE50FE87DF12000E015251146E156A11
:10075000030E145C000E155803E3F36AF46A22D00A
:1007600052CE45FE93DCD9DC0A0EE66EE66A180E20
:10077000E66E0E0EE66E530EE66E0E0EE66E0EEC96
:1007800061F0146E060EE15E145010CE5DFE11CEC7
:100790005EFE530E146E0E0E156E14C0F3FF15C0E0
:1007A000F4FF00D012000E015F51146E156A030EA3
:1007B000145C000E155801E313D05FCE45FE66DCD5
:1007C000ACDC0E010E512F1902E10F51301908E077
:1007D0000E01010EAE6F0E01100EAD6F4AEC11F05E
:1007E00012000E016051146E156A030E145C000EA7
:1007F000155803E3F36AF46A3ED060CE45FE46DC4A
:100800003FCE45FC070E0C01455D06E00B0E455D35
:1008100003E0F36AF46A2FD00E0131512F5D32519B
:1008200030591BE329512B5D166E2C512A55176E3A
:100830001606000E175A31512F5D186E3051325581
:10084000196E1850165C146E19501758156E14C096
:10085000F3FF15C0F4FF0FD00ED02F51315D146E91
:1008600032513055156E1406000E155A14C0F3FFA0
:1008700015C0F4FF00D012000E016151146E156A0C
:10088000030E145C000E155802E3000E74D061CE06
:1008900045FE46EC00F061CE60FEA3DFF3CF05FC21
:1008A000F4CF06FC0C010551061103E1000E63D0E4
:1008B00008D0010E051901E1065103E161CE5FFE8A
:1008C00072DF0E014151010B14E129512B5D146EB1
:1008D0002C512A55156ED890153214320C01055141
:1008E000145C0651155805E361CE5FFE5CDF0E0116
:1008F0004181010E0E01C56FC66B0E01C46F0E0162
:10090000620EC26F0E0EC36F44CEC1FE2FCEBFFE6D
:1009100030CEC0FE7EEC21F00E012F2B000E3023D6
:100920002B512F5D2C51305904E329CE2FFE2ACEB6
:1009300030FE0C01010E051901E1065104E161CE02
:100940005FFE31DF16D00E0140BB13D0408BE8ECC8
:1009500063F006C014F007C015F0166A176A070E98
:100960001426000E15221622172214C03BFE15C0B5
:100970003CFE010E00D012000C01A86BA96B0E0109
:100980006351146E156A030E145C000E155803E3D0
:10099000F36AF46AC2D063CE45FE46EC00F063CE43
:1009A00060FE1FDFF3CFA6FCF4CFA7FC0C01A6511D
:1009B000A71106E163CE5FFEF6DEF36AF46AADD0FE
:1009C000A6CCA4FCA7CCA5FCA6510E01665D0C012B
:1009D000A7510E01675904E266CEA4FC67CEA5FCC0
:1009E0004151010B14E129512B5D146E2C512A55F4
:1009F000156ED890153214320C01A651145CA75113
:100A0000155805E363CE5FFECEDE0E0141810E0177
:100A10002F510C01A425146E0E0130510C01A5219B
:100A2000156E0E012B51145C2C5115582DE32F51CE
:100A30002B5D0C01A86F0E0130512C590C01A96FD0
:100A4000A8CCC5FEA9CCC6FE0E01010EC46F64CEB3
:100A5000C2FE65CEC3FE44CEC1FE2FCEBFFE30CE59
:100A6000C0FE7EEC21F00C01A8510E0164270C01A0
:100A7000A9510E0165230C01A851A45FA951A55BE2
:100A800029CE2FFE2ACE30FEA4CCC5FEA5CCC6FEB4
:100A90000E01010EC46F64CEC2FE65CEC3FE44CE0D
:100AA000C1FE2FCEBFFE30CEC0FE7EEC21F00C0189
:100AB000A4510E012F270C01A5510E0130230C016A
:100AC000A6510E01665D0C01A7510E01675904E3A2
:100AD00063CE5FFE68DE15D040BB13D0408BE8ECE0
:100AE00063F006C014F007C015F0166A176A070E07
:100AF0001426000E15221622172214C03BFE15C024
:100B00003CFE0C01A451A825146EA551A921156E17
:100B100014C0F3FF15C0F4FF00D012000C01166BD7
:100B2000176B0E016851146E156A030E145C000EEB
:100B3000155803E3F36AF46AC5D068CE45FE46EC67
:100B400000F068CE60FE4DDEF3CF14FCF4CF15FC50
:100B50000C011451151106E168CE5FFE24DEF36A24
:100B6000F46AB0D00E014151010B14E129512B5D03
:100B7000146E2C512A55156ED890153214320C0172
:100B80001451145C1551155805E368CE5FFE0BDE59
:100B90000E01418114CC12FC15CC13FC0C01145134
:100BA0000E016C5D0C0115510E016D5904E26CCE05
:100BB00012FC6DCE13FC2F510C011225146E0E0188
:100BC00030510C011321156E0E012B51145C2C5168
:100BD000155830E32F512B5D0C01166F0E0130516B
:100BE0002C590C01176F16CCCDFE17CCCEFE69CE5A
:100BF000CAFE6ACECBFE6BCECCFE44CEC9FE2FCE53
:100C0000C7FE30CEC8FEE2EC21F016CC14F017CCB3
:100C100015F0166A14500E01692715506A231650F4
:100C20006B230C011651125F1751135B29CE2FFE57
:100C30002ACE30FE12CCCDFE13CCCEFE69CECAFE3B
:100C40006ACECBFE6BCECCFE44CEC9FE2FCEC7FE05
:100C500030CEC8FEE2EC21F00C0112510E012F271C
:100C60000C0113510E0130230C0114510E016C5D67
:100C70000C0115510E016D5904E368CE5FFE93DD42
:100C800015D040BB13D0408BE8EC63F006C014F0E5
:100C900007C015F0166A176A070E1426000E1522F3
:100CA0001622172214C03BFE15C03CFE0C01125147
:100CB0001625146E13511721156E14C0F3FF15C0BD
:100CC000F4FF00D012006FCEE6FF70CEE6FFC5EC59
:100CD00061F0E552E552F3CF66FEF4CF67FE6FCECA
:100CE00064FE70CE65FE6ECE63FE46DE0E016F5171
:100CF000F324146E7051F420156E14C0F3FF15C068
:100D0000F4FF00D0120072CEE6FF73CEE6FF74CE81
:100D1000E6FFD3EC61F0E552E552E55207C06CFE08
:100D200008C06DFE72CE69FE73CE6AFE74CE6BFE95
:100D300071CE68FEF3DEF3CF17F0F4CF18F0196A26
:100D40000E0172511724146E73511820156E7451D0
:100D50001920166E14C007F015C008F016C009F06F
:100D600000D012000E017551146E156A030E145C4A
:100D7000000E155803E3F36AF46A25D075CE45FEDC
:100D800046EC00F00E0129512B5D0C01026F0E01A3
:100D90002A512C590C01036F010E025F000E035BF8
:100DA00075CE60FE1EDDF3CF00FCF4CF01FC0C011C
:100DB0000051025D146E03510155156E14C0F3FF0E
:100DC00015C0F4FF00D0120076CE77FE18D8F3CF0E
:100DD00014F0F4CF15F01450151010E076CE45FE47
:100DE00046EC00F033CE35FE34CE36FE0E01010E59
:100DF000AE6F0E01100EAD6F4AEC11F012000E0135
:100E00007751146E156A030E145C000E155803E337
:100E1000F36AF46A31D077CE45FE46EC00F00E015D
:100E20003551335D365134590CE33551335D146E11
:100E300034513655156E14C0F3FF15C0F4FF1CD0A5
:100E40001BD035512D5D166E2E513655176E010E85
:100E50001626000E17222B51335D186E34512C5577
:100E6000196E16501824146E17501920156E14C0E0
:100E7000F3FF15C0F4FF00D0120078CE77FEBFDF7D
:100E8000F3CF00FCF4CF01FC0C010051011102E191
:100E9000000E48D078CE45FE46EC00F00E017951A8
:100EA0007A1112E0010E0E01C56FC66B44CEC4FE6E
:100EB00035CEC2FE36CEC3FE0E01C16F79CEBFFE67
:100EC0007ACEC0FE7EEC21F00E01352B000E3623CB
:100ED00035512D5D36512E5904E22BCE35FE2CCEE8
:100EE00036FE0C01010E001901E1015103E10E0172
:100EF000418516D00E0140BB13D0408BE8EC63F067
:100F000006C014F007C015F0166A176A240E1426DE
:100F1000000E15221622172214C03BFE15C03CFEFF
:100F2000010E00D012000C012D6B2E6B7BCE77FED4
:100F300066DFF3CF2BFCF4CF2CFC0C012B512C11D2
:100F400003E1F36AF46AA1D07BCE45FE46EC00F0E3
:100F50000E017E510C012B5D0E017F510C012C59AD
:100F600004E22BCC7EFE2CCC7FFE0E0135517E257B
:100F7000146E36517F21156E14502D5D15502E596B
:100F800038E235512D5D0C012D6F0E0136512E5971
:100F90000C012E6F010E2D27000E2E230E017C5109
:100FA0007D111BE02DCCC5FE2ECCC6FE44CEC4FE6A
:100FB00035CEC2FE36CEC3FE0E01010EC16F7CCE11
:100FC000BFFE7DCEC0FE7EEC21F00C012D510E0146
:100FD0007C270C012E510E017D230C012D510E0199
:100FE0007E5F0C012E510E017F5B2BCE35FE2CCE89
:100FF00036FE7C517D1113E07ECEC5FE7FCEC6FE4F
:1010000044CEC4FE35CEC2FE36CEC3FE0E01010E66
:10101000C16F7CCEBFFE7DCEC0FE7EEC21F00E0106
:101020007E5135277F5136230C012D510E017E272D
:101030000C012E510E017F237E510C012B5D146E8D
:101040002C510E017F55156E14507E5D15507F5941
:1010500002E3418515D040BB13D0408BE8EC63F030
:1010600006C014F007C015F0166A176A240E14267D
:10107000000E15221622172214C03BFE15C03CFE9E
:101080007ECEF3FF7FCEF4FF00D012000E01805120
:10109000146E156A030E145C000E155803E3F36A10
:1010A000F46A21D080CE45FE46EC00F00E012B51B3
:1010B0002D5D0C01026F0E012C512E590C01036F96
:1010C00080CE77FE9CDEF3CF00FCF4CF01FC0C0158
:1010D0000051025D146E03510155156E14C0F3FFEB
:1010E00015C0F4FF00D012000E018151146E156A74
:1010F000030E145C000E155803E28451851103E1C0
:10110000F36AF46AABD081CE45FE46EC00F081CEA6
:1011100077FE75DEF3CF02FCF4CF03FC0E0186519F
:101120008425146E87518521156E0C011450025DC3
:10113000155003590BE20E0186510C01025D0E01A0
:10114000846F87510C0103590E01856F0E013551D3
:1011500086250C01006F0E01365187210C01016FAD
:1011600000510E012D5D0C0101510E012E590FE2AF
:101170002B512D5D146E2E512C55156E010E14261B
:10118000000E152214500C01005F1550015B0C017C
:1011900000510E012D5D0C01046F01510E012E59FD
:1011A0000C01056F010E0427000E05230E0184516A
:1011B0000C01045D0E0185510C01055914E384CE28
:1011C000C5FE85CEC6FE44CEC4FE00CCC2FE01CC18
:1011D000C3FE0E01010EC16F82CEBFFE83CEC0FEE4
:1011E0007EEC21F036D004CCC5FE05CCC6FE44CE44
:1011F000C4FE00CCC2FE01CCC3FE0E01010EC16FC5
:1012000082CEBFFE83CEC0FE7EEC21F00C010451E5
:101210000E01845D0E01C56F0C0105510E0185594B
:101220000E01C66F44CEC4FE2BCEC2FE2CCEC3FE32
:101230000E01010EC16F0E0182510C0104250E0139
:10124000BF6F0E0183510C0105210E01C06F7EECB2
:1012500021F084CEF3FF85CEF4FF00D0120089CEBA
:1012600086FE8ACE87FE010E0E01846F856B0E010D
:10127000060E826F0C0E836F88CE81FE35DF0C0167
:10128000065100D012000E018B51146E156A030E28
:10129000145C000E155803E28E518F1103E1F36ABE
:1012A000F46AB2D18BCE45FE46EC00F08BCE77FED1
:1012B000A6DD0E019051F35C0C01026F0E019151FD
:1012C000F4580C01036F0E018E510C01025D0E01EA
:1012D0008F510C01035903E2F368F46895D10E01B4
:1012E000925193110DE00C0102510E01925D0C011F
:1012F00003510E01935904E292CE02FC93CE03FCFB
:10130000355190250C01066F0E01365191210C01CB
:10131000076F06510E012D5D0C0107510E012E596C
:101320000FE22B512D5D146E2E512C55156E010EB2
:101330001426000E152214500C01065F1550075B91
:1013400006CC00FC07CC01FC0C0106510E012D5D02
:101350000C01046F07510E012E590C01056F010E8F
:101360000427000E052390CE06FC91CE07FC8ECEFE
:1013700008FC8FCE09FC8CCE0AFC8DCE0BFC0E0136
:101380008CCEE9FF8DCEEAFF8C2B8D23EFCF0DFCA9
:101390000C010F6B0E01945109E0610E0C010D5D03
:1013A00005E30D517A0802E3E00E0D270C01200E33
:1013B0000E6F0E51045D000E055902E204CC0EFCC6
:1013C0000E51025D000E035902E202CC0EFC0E51DA
:1013D0000E01C56FC66B44CEC4FE00CCC2FE01CC6C
:1013E000C3FE0E01010EC16F0E01100EBF6F0C0E79
:1013F000C06F7EEC21F00C010E51146E156A145072
:101400000027155001230E51146E156A1450045F05
:101410001550055B0451051106E12BCE00FC2CCEC6
:1014200001FC046905690E01945101E181D00C01B0
:101430000C6B0E510C5D01E37AD00C51EA6A100F6F
:10144000E96E0C0EEA22EFCF14F0610E145C13E388
:101450000C51EA6A100FE96E0C0EEA22EF507A087E
:101460000AE3E00E146E0C51EA6A100FE96E0C0EDE
:10147000EA221450EF260C51EA6A100FE96E0C0EA6
:10148000EA22EF500D5D33E10E018E07000E8F5BF7
:101490008E518F1117E10C010851065D166E075130
:1014A0000955176E0C5100011624146E000E1720FA
:1014B000156E010E1426000E152214C0F3FF15C080
:1014C000F4FFA2D08CCEE9FF8DCEEAFF8C2B000E6C
:1014D0008D23EFCF0DFC0C01010E0F6F610E0D5D22
:1014E00005E30D517A0802E3E00E0D271ED008CC6B
:1014F0008EFE09CC8FFE0F5118E00ACC8CFE0BCC6F
:101500008DFE0E018CCEE9FF8DCEEAFF8C2B000EF6
:101510008D23EFCF0DFC610E0C010D5D05E30D5128
:101520007A0802E3E00E0D270F6B0C2B82D751D007
:101530000C010C6B0E510C5D4CE20C51EA6A100F61
:10154000E96E0C0EEA22EF500D5D2BE10E018E07C5
:10155000000E8F5B8E518F1117E10C010851065D53
:10156000166E07510955176E0C5100011624146EA2
:10157000000E1720156E010E1426000E152214C041
:10158000F3FF15C0F4FF40D08CCEE9FF8DCEEAFF0B
:101590008C2B000E8D23EFCF0DFC0C01010E0F6F75
:1015A00016D008CC8EFE09CC8FFE0F5110E00ACC6D
:1015B0008CFE0BCC8DFE0E018CCEE9FF8DCEEAFFAA
:1015C0008C2B000E8D23EFCF0DFC0C010F6B0C2B21
:1015D000B1D70E51146E156A1450025F1550035B9B
:1015E0000E018E510C01025D0E018F510C01035949
:1015F00003E2F368F46808D00E51146E156A1450B3
:10160000062715500723D2D612000E019551146EED
:10161000156A030E145C000E155803E299519A11D5
:1016200003E1F36AF46ACDD195CE45FE46EC00F0B5
:1016300095CE77FEFFEC06F00E019B51F35C0C019A
:10164000026F0E019C51F4580C01036F0E01995169
:101650000C01025D0E019A510C01035903E2F3687B
:10166000F468AFD10E019D519E110DE00C010251A5
:101670000E019D5D0C0103510E019E5904E29DCEA9
:1016800002FC9ECE03FC35519B250C01066F0E011A
:1016900036519C210C01076F06510E012D5D0C0186
:1016A00007510E012E590FE22B512D5D146E2E5154
:1016B0002C55156E010E1426000E152214500C0127
:1016C000065F1550075B06CC00FC07CC01FC0C0143
:1016D00006510E012D5D0C01046F07510E012E59AC
:1016E0000C01056F010E0427000E05239BCE06FC9E
:1016F0009CCE07FC99CE08FC9ACE09FC96CE0AFC3B
:1017000097CE0BFC98CE0CFC0E0196CEF6FF962BD6
:1017100097CEF7FF972398CEF8FF98230800F5CFD0
:101720000EFC0C01106B0E019F5109E0610E0C01C3
:101730000E5D05E30E517A0802E3E00E0E270C0160
:10174000200E0F6F0F51045D000E055902E204CC0C
:101750000FFC0F51025D000E035902E202CC0FFC98
:101760000F510E01C56FC66B44CEC4FE00CCC2FE45
:1017700001CCC3FE0E01010EC16F0E01110EBF6F31
:101780000C0EC06F7EEC21F00C010F51146E156A27
:1017900014500027155001230F51146E156A145070
:1017A000045F1550055B0451051106E12BCE00FCCA
:1017B0002CCE01FC046905690E019F5101E18BD01B
:1017C0000C010D6B0F510D5D01E384D00D51EA6AE0
:1017D000110FE96E0C0EEA22EFCF14F0610E145CCB
:1017E00013E30D51EA6A110FE96E0C0EEA22EF5075
:1017F0007A080AE3E00E146E0D51EA6A110FE96EE1
:101800000C0EEA221450EF260D51EA6A110FE96E10
:101810000C0EEA22EF500E5D37E10E019907000E23
:101820009A5B99519A1117E10C010851065D166EE9
:1018300007510955176E0D5100011624146E000E44
:101840001720156E010E1426000E152214C0F3FF8A
:1018500015C0F4FFB6D096CEF6FF962B97CEF7FFC5
:10186000000E972398CEF8FF98230800F5CF0EFCC2
:101870000C01010E106F610E0E5D05E30E517A082A
:1018800002E3E00E0E2724D008CC99FE09CC9AFE84
:1018900010511EE00ACC96FE0BCC97FE0CCC98FEA5
:1018A0000E0196CEF6FF962B97CEF7FF000E9723EC
:1018B00098CEF8FF98230800F5CF0EFC610E0C01BE
:1018C0000E5D05E30E517A0802E3E00E0E27106B61
:1018D0000D2B78D75BD00C010D6B0F510D5D56E2CF
:1018E0000D51EA6A110FE96E0C0EEA22EF500E5DFF
:1018F0002FE10E019907000E9A5B99519A1117E199
:101900000C010851065D166E07510955176E0D51F1
:1019100000011624146E000E1720156E010E1426F9
:10192000000E152214C0F3FF15C0F4FF4AD096CE66
:10193000F6FF962B97CEF7FF000E972398CEF8FF71
:1019400098230800F5CF0EFC0C01010E106F1CD07F
:1019500008CC99FE09CC9AFE105116E00ACC96FEEE
:101960000BCC97FE0CCC98FE0E0196CEF6FF962B74
:1019700097CEF7FF000E972398CEF8FF9823080024
:10198000F5CF0EFC0C01106B0D2BA7D70F51146E69
:10199000156A1450025F1550035B0E0199510C013A
:1019A000025D0E019A510C01035903E2F368F468D9
:1019B00008D00F51146E156A1450062715500723CE
:1019C000BED61200A6CE94FEA4CE92FEA5CE93FE65
:1019D000A2CE90FEA3CE91FE010E0E018E6F8F6BF4
:1019E0000E01A10E8C6F0E0E8D6FA0CE8BFE4BDC08
:1019F00000D012000C011C6B1C51146E156A030EF2
:101A0000145C000E155801E300D31CCC45FE46ECD7
:101A100000F00C011F6B1D6B1E6B0E014151020B80
:101A200003E14151040B0EE01AEC47F000090AE013
:101A30000C01100E1F6F0E014151040B01E0010E4D
:101A40000C011D6F0E0140AB13D0E8EC63F00E01EA
:101A500006503B5D146E07503C59156E153404E278
:101A600014500008000E155403E30C01100E1F6FF4
:101A70000E0140AD13D0E8EC63F00E0106503D5D61
:101A8000146E07503E59156E153404E214500008C8
:101A9000000E155403E30C01100E1F6F0B0E0E0108
:101AA0003F5D16E1E8EC63F00E0106503D5D146EFB
:101AB00007503E59156E153404E214500008000E0C
:101AC000155406E30C01110E1F6F0E010C0E3F6F33
:101AD000040E3F5D01E00AD10C01206B216B030E67
:101AE000205D000E215901E301D120CCE9FF21CC7A
:101AF000EAFF140EEA02F3CFEAFFE902F3CFE9FFAF
:101B0000F450EA26C40EE926010EEA22100EE92658
:101B1000000EEA22EE50ED1001E1E8D020CCE9FF02
:101B200021CCEAFF140EEA02F3CFEAFFE902F3CF79
:101B3000E9FFF450EA26C40EE926010EEA22100E4F
:101B4000E926000EEA22EECF14F0EFCF15F00E01D9
:101B50004251141802E14351151801E0C2D08DEC36
:101B600000F00A0EE66EE66A20CCE9FF21CCEAFF1F
:101B7000140EEA02F3CFEAFFE902F3CFE9FFF450D3
:101B8000EA26C40EE926010EEA22E9CF14F0EACFD4
:101B900015F014C0E6FF15C0E6FF180EE66E0E0E37
:101BA000E66E0EEC61F0166E060EE15E165020CC6D
:101BB000E9FF21CCEAFF140EEA02F3CFEAFFE902C3
:101BC000F3CFE9FFF450EA26C40EE926010EEA221B
:101BD0000A0EE926000EEA22EECF10FEEDCF11FE2E
:101BE00020CCE9FF21CCEAFF140EEA02F3CFEAFF92
:101BF000E902F3CFE9FFF450EA26C40EE926010E0C
:101C0000EA220C0EE926000EEA22EECF0AFEEECF03
:101C10000BFEEECF0CFEEFCF0DFE0E010A2B0B23B9
:101C20000C230D231A511825166E1B511921176EFE
:101C300016501025146E17501121156E14501219DC
:101C4000426F15501319436F0C01120E1F6F0E01D6
:101C5000060E3F6F20CCC5FE21CCC6FE0E01020E43
:101C6000D880C557000EC657140EC603F3CFC6FE64
:101C7000C503F3CFC5FEF450C6270E01010EC46F95
:101C80000C0120250E01C26F000E0C0121210E0156
:101C9000C36F140EC303F3CFC3FEC203F3CFC2FE60
:101CA000F450C327C40EC227010EC3230E01010E38
:101CB000C16F140E086E096A20CC0DF021CC0EF015
:101CC00099EC64F006C0BFFE07C0C0FEC40E0E0152
:101CD000BF27010EC0237EEC21F00101FC6BFD6BE0
:101CE00005D00C01202B000E2123F9D60C011F5129
:101CF0000AE01D5102E0000E01D0010E0E01AE6F90
:101D00001FCCADFEC7DA0E0140B94ED0070E3F5DC5
:101D10004AE1D5EC63F00E013751065C146E385180
:101D20000758156E39510858166E3A510958176EF2
:101D30000001800E171401E065D10E014051070B20
:101D4000060815E14051080B01E0010E0C011F6F60
:101D50001CCC50FE2AEC03F01CCC50FE2AEC03F005
:101D60000C011F5103E10E010E0E3F6F4BD18DECA4
:101D700000F00E01020EAE6F0E01100EAD6F8ADA8A
:101D8000D5EC63F006C037FE07C038FE08C039FE48
:101D900009C03AFE0E0E0E013727270E3823070E14
:101DA0003923000E3A232ED1D5EC63F00E013751C2
:101DB000065C146E38510758156E39510858166E66
:101DC0003A510958176E0001800E171401E01AD11C
:101DD0008DEC00F00E013F510C0A01E1B2D0060A71
:101DE00001E1A0D0030A01E197D0010A01E185D009
:101DF0000F0A74E00C0A72E00D0A5BE0030A46E089
:101E0000060A14E0010A01E0ABD0E8EC63F006C07A
:101E10003BFE07C03CFE0E01180EEE6F0E0EEF6F7C
:101E20001DEC5DF00E01030E3F6F9AD00E011C0EEB
:101E3000F26F0E0EF36F0E01180EF06F0E0EF16FB3
:101E400061EC5DF000091AE1E8EC63F00E013B5132
:101E5000065C146E3C510758156E1450025D155007
:101E600003590BE2060E275D06E2272BD8900237B6
:101E7000033704370537020E3F6F72D00C01020E94
:101E80001F6F1D6B0E01050E3F6F6AD00C01020E15
:101E90001F6F010E1D6F040E0E01275D09E3040E76
:101EA000276FB00E026F710E036F0B0E046F056B80
:101EB00057D0020E275D06E20C01120E1F6F010EB5
:101EC0001D6F0BD040A706D00C01140E1F6F010E22
:101ED0001E6F03D00C01020E1F6F42D0050E275D4E
:101EE00006E20C01100E1F6F010E1D6F05D0080ECB
:101EF0003F6F0C01110E1F6F33D0050E275D06E2F8
:101F00000C01110E1F6F010E1D6F05D00C01140E78
:101F10001F6F010E1E6F24D00C01140E1F6F010ED7
:101F20001E6F1ED0050E275D06E20C01100E1F6FFE
:101F3000010E1D6F05D00C01140E1F6F010E1E6FD8
:101F40000FD0050E275D06E20C01110E1F6F010E6A
:101F50001D6F05D00C01140E1F6F010E1E6F00D0F7
:101F60000C011F514AE01D5142E00E01272BD89071
:101F7000023703370437053731510E5D0C01206FEE
:101F80000E0132510F590C01216F0E0131510E5DBE
:101F900032510F590BE229512B5D146E2C512A55E9
:101FA000156E14500C0120271550212320CC14F05D
:101FB00021CC15F0166A176A14500E01065F1550F1
:101FC000075B1650085B1750095B0C0120510E018E
:101FD00014270C0121510E01152331CE0EFE32CEF5
:101FE0000FFE0E01AE6B1FCCADFE54D906D00E0114
:101FF000010EAE6F1FCCADFE4DD90C011E5102E09B
:1020000095EC17F00C011C2BF7D4206B216B030E01
:10201000205D000E215901E399D020CCE9FF21CCAD
:10202000EAFF140EEA02F3CFEAFFE902F3CFE9FF79
:10203000F450EA26C40EE926010EEA22100EE92623
:10204000000EEA22EE50ED1001E180D020CCE9FF35
:1020500021CCEAFF140EEA02F3CFEAFFE902F3CF44
:10206000E9FFF450EA26C40EE926010EEA22120E18
:10207000E926000EEA22EECF16F0EFCF17F016C0D9
:10208000E6FF17C0E6FFE8EC63F0E552E7CF17F094
:10209000E552E7CF16F01650065C146E175007583D
:1020A000156E250ED8801454020E15544AE220CC29
:1020B000C5FE21CCC6FE0E01020ED880C557000E0B
:1020C000C657140EC603F3CFC6FEC503F3CFC5FE35
:1020D000F450C6270E01010EC46F0C0120250E011D
:1020E000C26F000E0C0121210E01C36F140EC30339
:1020F000F3CFC3FEC203F3CFC2FEF450C327C40E16
:10210000C227010EC3230E01010EC16F140E086E0B
:10211000096A20CC0DF021CC0EF099EC64F006C0D9
:10212000BFFE07C0C0FEC40E0E01BF27010EC023B4
:102130007EEC21F00101FC6BFD6B0C012007000E11
:10214000215B0C01202B000E212361D71200A7CEAA
:10215000E9FFA8CEEAFFEECF14FCEECF15FCEECFE0
:1021600016FCEFCF17FCA9CEE9FFAACEEAFFEECF0F
:1021700018FCEECF19FCEECF1AFCEFCF1BFC0C01C4
:102180001C6B060E1D6FABCE1EFCACCE1FFC1ECC16
:1021900058F21FCC59F292EC52F0F3CF1EFCF4CF60
:1021A0001FFC0C0E0201606F616B0201140E5E6F6A
:1021B0000C0E5F6FB9EC52F0F3CF20FCF4CF21FC92
:1021C0000C01201F211FABCE19F2ACCE1AF2A4ECE9
:1021D0004AF0F3CF22FCF4CF23FC0C01225120194A
:1021E00002E12351211904E028EC47F0010E51D0FF
:1021F00002019A6B9B6B8EEC60F0140E0201236F50
:10220000246B0201000E216F0C0E226FC1EC4CF00A
:102210000E01000EB36F0C0EB46FBAEC16F00C0189
:102220000C51F00BE842E842E842E842040DF3505A
:10223000146E156A140E145E000E155A14C024FC98
:102240002451146E156A14500E01AB5DAB6F15501E
:10225000AC59AC6F140EAB5F000EAC5BA7CEB1FEF9
:10226000A8CEB2FE0E01000EAF6F0C0EB06FD8DA22
:1022700000090BE0ABCEB7FEACCEB8FE0E01000EEF
:10228000B56F0C0EB66F5EEC18F028EC47F0010E3F
:1022900000D012008DEC00F00E01ADA102D04187FC
:1022A000AD91409B409D409F4193419541911AECD7
:1022B00047F0000901E1FBD7060E0E01AD1504E061
:1022C0000C016B6B6C6BFBD00E512F1902E10F519F
:1022D000301904E10C016B6B6C6BD9D02F510E5D82
:1022E00030510F593FE20E512F5D0C016B6F0E0103
:1022F0000F5130590C016C6F6B510E01145D0C01C4
:102300006C510E01155904E214CE6BFC15CE6CFC19
:102310000C016B510E01255D0C016C510E0126590B
:1023200005E225CE6BFC26CE6CFC41856BCCC5FE50
:102330006CCCC6FE44CEC4FE0ECEC2FE0FCEC3FE93
:102340000E01C16B0E016D0EBF6F150EC06F7EECDE
:1023500021F00C016B510E010E270C016C510E0186
:102360000F2395D00E512B5D0C01696F0E010F519B
:102370002C590C016A6F69510E012F25146E0C0146
:102380006A510E013021156E2951145C0C016B6FDE
:102390000E012A5115580C016C6F6B510E01145D22
:1023A0000C016C510E01155904E214CE6BFC15CED4
:1023B0006CFC0C016B510E01255D0C016C510E0182
:1023C000265905E225CE6BFC26CE6CFC41850C011E
:1023D00069516B5D6A516C5904E26BCC69FC6CCC41
:1023E0006AFC69CCC5FE6ACCC6FE44CEC4FE0ECEE5
:1023F000C2FE0FCEC3FE0E01C16B0E016D0EBF6F8C
:10240000150EC06F7EEC21F00C0169516B5D696F98
:102410006A516C596A6F69516A1122E069CCC5FE34
:102420006ACCC6FE44CEC4FE29CEC2FE2ACEC3FE6E
:102430000E01C16B0E010E512B5D146E2C510F5508
:10244000156E166A176A6D0E1426150E1522000EEB
:102450001622172214C0BFFE15C0C0FE7EEC21F06C
:102460000C016B510E010E270C016C510E010F2354
:102470002B510E5D2C510F590AE329512B5D146E1F
:102480002C512A55156E14500E5F15500F5B0E011E
:1024900041A715D014510C016B1904E10E0115511F
:1024A0000C016C190CE00E0125510C016B1904E1B3
:1024B0000E0126510C016C1902E00E01AD810C01D8
:1024C0006B516C1104E1030E0E01AD1529E00C01F6
:1024D0006B510E01145F0C016C510E01155B0C0168
:1024E0006B516C1102E00E01AD870E01AEA107D059
:1024F000276B1B0E026FB70E036F046B056BD5ECD9
:1025000063F006500E010225376F07500321386F24
:1025100008500421396F095005213A6F408938D09D
:10252000AEA31BD0400EE96E0E0EEA6EEF50070B05
:10253000E82AF36EF350070BF36EF46EF80EEF1407
:10254000F310EF6EF4500607000E075B085B095BA3
:10255000010E0C016B6F6C6B1BD040A919D0AEB192
:1025600008D0275106E02707D890053304330333FA
:102570000233D5EC63F006500E010225376F075089
:102580000321386F08500421396F095005213A6F33
:1025900012CE47FC13CE48FC10CE49FC11CE4AFCAB
:1025A00006CE4BFC07CE4CFC08CE4DFC09CE4EFCB3
:1025B0000ACE4FFC0BCE50FC0CCE51FC0DCE52FC83
:1025C0000C01549D549F5391539353955397ADCE03
:1025D00054FC596B5A6B6B510E0106270C016C5160
:1025E0000E010723000E08230923ADA315D0ADB9B2
:1025F00005D00C014F6B506B516B526B0E0124A335
:1026000006D00C014B074C5B4D5B4E5B05D0062B97
:1026100007230823092324830E01ADB124813551FA
:10262000335D3651345914E32B512D5D146E2E5108
:102630002C55156E3551335D166E34513655176E67
:102640000C011650145C556F17501558566F0DD06D
:102650003351355D0C01556F0E01345136590C0163
:10266000566F010E555F000E565B61EC47F0F3CFDD
:1026700045FCF4CF46FC0C01400E455D000E46596A
:1026800003E2456B466B04D0400E455F000E465B8F
:102690005551455D5651465904E245CC55FC46CC52
:1026A00056FC0E01470EB36F0C0EB46F63DB140EB5
:1026B0000C016B27000E6C235389539B538D539F42
:1026C0000E01ADA326D0040E0C016B27000E6C2367
:1026D000020E5B6F040E5C6F020E5D6F180E5E6F74
:1026E000010E146E530EE96E0C0EEA6EEF50F00BF5
:1026F000E842E842E842E84214240F0BF36EF46E1D
:10270000F346F346F346F3460F0EEF14F310EF6E65
:10271000F45083C15FFC84C160FC85C161FC86C14B
:1027200062FC18CE63FC19CE64FC1ACE65FC1BCE8D
:1027300066FC0C01676B060E686F6BCC69FC6CCC99
:102740006AFC69CC58F26ACC59F292EC52F0F3CFA1
:1027500069FCF4CF6AFC0C0E0201606F616B020130
:102760005F0E5E6F0C0E5F6FB9EC52F0F3CF57FC4B
:10277000F4CF58FC0C01571F581F0201450E116F72
:10278000150E126F10EC4AF06BCC98F26CCC99F2EB
:102790000201060E976F0201180E956F0E0E966FCE
:1027A0001AEC60F0140E0201286F296B0201470E2B
:1027B000266F0C0E276F11EC4DF00E01ADA30BD060
:1027C000040E0201286F296B02015B0E266F0C0EAE
:1027D000276F11EC4DF00201590E136F150E146F97
:1027E00030EC4AF06BCC19F26CCC1AF2A4EC4AF043
:1027F000F3CF45FCF4CF46FC0201690E116F150EB4
:10280000126F10EC4AF0020E0201286F296B0201D0
:10281000450E266F0C0E276F11EC4DF0DFEF48F0E0
:10282000AFCEE9FFB0CEEAFF020EE926000EEA22A3
:10283000EE50ED1002E1000E9CD20C01FE0E266F50
:10284000B1CEE9FFB2CEEAFF020EE926000EEA227F
:10285000EECF18F0EFCF19F0B1CEE9FFB2CEEAFF1C
:102860001850EE24166E1950EE20176EAFCEE9FF09
:10287000B0CEEAFF1650EE24146E1750EE20156EFF
:10288000AFCEE9FFB0CEEAFF020EE926000EEA2243
:102890001450EE18276F1550EE18286F256B255130
:1028A000146E156A030E145C000E155867E225CCF1
:1028B00045FE46EC00F00D0E0E013F5D02E15BD0DF
:1028C00024D0040E3F5D16E1AFCEE9FFB0CEEAFFA3
:1028D000020EE926000EEA22EECF14F0EFCF15F03B
:1028E0001450421902E11550431902E125CC26FC8F
:1028F00042D00BD00C0127510E01421904E10C010A
:1029000028510E01431901E036D08DEC00F0AFCE16
:10291000E9FFB0CEEAFF020EE926000EEA22EECF72
:1029200014F0EFCF15F00E011251141802E11351FB
:10293000151821E1AFCEE9FFB0CEEAFFEECF16F0D9
:10294000EFCF17F01051161802E11151171813E1CB
:10295000B1CEE9FFB2CEEAFFEE50181909E1EE5010
:10296000191906E1EE501A1903E1EE501B1900E1A6
:1029700002E1010EFED10C01252B91D7FE0E265D42
:1029800039E026CC45FE46EC00F08DEC00F0FE0E62
:102990000C01265D2FE027CC42FE28CC43FE0A0E18
:1029A000E66EE66AB1CEE6FFB2CEE6FF180EE66E40
:1029B0000E0EE66E0EEC61F0146E060EE15E145023
:1029C000AFCEE9FFB0CEEAFFEECF10FEEDCF11FEA5
:1029D000AFCEE9FFB0CEEAFF020EE926000EEA22F2
:1029E000EECF12FEEDCF13FE29CE0EFE2ACE0FFE45
:1029F000010EBFD1AFCEE9FFB0CEEAFF0D0EE92642
:102A0000000EEA22EF50020B02E1000EB2D10101EA
:102A1000FC51FD1102E0000EACD10C01296B2A6BB8
:102A2000030E295D000E2A5901E3BED029CCE9FF2F
:102A30002ACCEAFF140EEA02F3CFEAFFE902F3CF51
:102A4000E9FFF450EA26C40EE926010EEA22100E30
:102A5000E926000EEA22EE50ED1001E1A5D029CCC6
:102A6000E9FF2ACCEAFF140EEA02F3CFEAFFE902FB
:102A7000F3CFE9FFF450EA26C40EE926010EEA225C
:102A8000100EE926000EEA22EECF14F0EFCF15F07B
:102A9000AFCEE9FFB0CEEAFF020EE926000EEA2231
:102AA000EECF16F0EFCF17F01650141802E11750C2
:102AB000151801E074D029CCE9FF2ACCEAFF140EE6
:102AC000EA02F3CFEAFFE902F3CFE9FFF450EA2686
:102AD000C40EE926010EEA220A0EE926000EEA22B9
:102AE000EECF14F0EFCF15F0AFCEE9FFB0CEEAFF96
:102AF000EECF16F0EFCF17F01650141802E1175072
:102B0000151801E04CD0B1CEE9FFB2CEEAFFEECF0E
:102B100014F0EECF15F0EECF16F0EFCF17F029CC72
:102B2000E9FF2ACCEAFF140EEA02F3CFEAFFE9023A
:102B3000F3CFE9FFF450EA26C40EE926010EEA229B
:102B4000EE500001141809E1EE50151806E1EE50A0
:102B5000161803E1EE50171800E101E020D0E8EC70
:102B600063F006C014F007C015F029CCE9FF2ACCA9
:102B7000EAFF140EEA02F3CFEAFFE902F3CFE9FF1E
:102B8000F450EA26C40EE926010EEA22120EE926C6
:102B9000000EEA2214C0EEFF15C0EDFFEAD00C01D2
:102BA000292B000E2A233CD7256B2551146E156A5C
:102BB000030E145C000E155801E3D9D025CC45FE58
:102BC00046EC00F00E0140A7CFD08DEC00F0AFCE68
:102BD000E9FFB0CEEAFF020EE926000EEA22EECFB0
:102BE00014F0EFCF15F014500E01121902E1155038
:102BF000131901E0B9D00A0EE66EE66AB1CEE6FF1F
:102C0000B2CEE6FF29CCE9FF2ACCEAFF140EEA0295
:102C1000F3CFEAFFE902F3CFE9FFF450EA26C40E4E
:102C2000E926010EEA22E9CF14F0EACF15F014C02C
:102C3000E6FF15C0E6FF0EEC61F0166E060EE15ED3
:102C40001650AFCEE9FFB0CEEAFFEECF14F0EFCFD3
:102C500015F029CCE9FF2ACCEAFF140EEA02F3CFE3
:102C6000EAFFE902F3CFE9FFF450EA26C40EE926B1
:102C7000010EEA220A0EE926000EEA2214C0EEFF37
:102C800015C0EDFFAFCEE9FFB0CEEAFF040EE92696
:102C9000000EEA22EECF14F0EECF15F0EECF16F0D4
:102CA000EFCF17F029CCE9FF2ACCEAFF140EEA0295
:102CB000F3CFEAFFE902F3CFE9FFF450EA26C40EAE
:102CC000E926010EEA220C0EE926000EEA2214C0C3
:102CD000EEFF15C0EEFF16C0EEFF17C0EEFFAFCE41
:102CE000E9FFB0CEEAFF020EE926000EEA22EECF9F
:102CF00014F0EFCF15F029CCE9FF2ACCEAFF140E2F
:102D0000EA02F3CFEAFFE902F3CFE9FFF450EA2643
:102D1000C40EE926010EEA22100EE926000EEA2270
:102D200014C0EEFF15C0EDFFE8EC63F006C014F030
:102D300007C015F029CCE9FF2ACCEAFF140EEA02FD
:102D4000F3CFEAFFE902F3CFE9FFF450EA26C40E1D
:102D5000E926010EEA22120EE926000EEA2214C02C
:102D6000EEFF15C0EDFF05D00C01252B1ED7000E80
:102D700000D01200B3CEE9FFB4CEEAFFEECF58F296
:102D8000EDCF59F292EC52F0F3CF14F0F4CF15F0EE
:102D9000B3CEE9FFB4CEEAFF14C0EEFF15C0EDFFDD
:102DA000B3CEE9FFB4CEEAFF020EE926000EEA2216
:102DB000EECF58F2EDCF59F292EC52F0F3CF14F07F
:102DC000F4CF15F0B3CEE9FFB4CEEAFF020E14C083
:102DD000EBFF030E15C0EBFFB3CEE9FFB4CEEAFF65
:102DE000040EE926000EEA22EECF5AF2EECF5BF295
:102DF000EECF5CF2EFCF5DF2A2EC52F006C014F021
:102E000007C015F008C016F009C017F0B3CEE9FFEF
:102E1000B4CEEAFF040EE926000EEA2214C0EEFF4B
:102E200015C0EEFF16C0EEFF17C0EEFFB3CEE9FFF0
:102E3000B4CEEAFF080EE926000EEA22EECF5AF2DF
:102E4000EECF5BF2EECF5CF2EFCF5DF2A2EC52F090
:102E500006C014F007C015F008C016F009C017F03E
:102E6000B3CEE9FFB4CEEAFF080EE926000EEA224F
:102E700014C0EEFF15C0EEFF16C0EEFF17C0EEFF48
:102E8000B3CEE9FFB4CEEAFF0E0EE926000EEA2229
:102E9000EECF58F2EDCF59F292EC52F0F3CF14F09E
:102EA000F4CF15F0B3CEE9FFB4CEEAFF0E0E14C096
:102EB000EBFF0F0E15C0EBFFB3CEE9FFB4CEEAFF78
:102EC000100EE926000EEA22EECF58F2EDCF59F2AD
:102ED00092EC52F0F3CF14F0F4CF15F0B3CEE9FF3B
:102EE000B4CEEAFF100E14C0EBFF110E15C0EBFFBD
:102EF000B3CEE9FFB4CEEAFF120EE926000EEA22B5
:102F0000EECF58F2EDCF59F292EC52F0F3CF14F02D
:102F1000F4CF15F0B3CEE9FFB4CEEAFF120E14C021
:102F2000EBFF130E15C0EBFF12008DEC00F012CE7C
:102F300042FE13CE43FE29CE2FFE2ACE30FE29CEEE
:102F400031FE2ACE32FE2BCE33FE2CCE34FE2BCEDB
:102F500035FE2CCE36FE0E014051080B02E0040E69
:102F600001D00D0E3F6F4091409340954099409B9A
:102F7000409D409F419141934195419741892491C2
:102F800024932497249929CE0EFE2ACE0FFE02EC1C
:102F90004FF0F3CF06FEF4CF07FE02EC4FF0F3CF75
:102FA00008FEF4CF09FE0E0122692369010E146F99
:102FB000156B12000C0E02019A6F9B6B8EEC60F089
:102FC000ADEC4CF00C01416FF00E4115E840E840CB
:102FD0003F0B146E156A140E145E000E155A14C0C1
:102FE00041FC415105E1180EF36E020EF46E65D0FE
:102FF000070E0201236F246B0201216B226BC1ECCF
:103000004CF00C0141514107000952E0ADEC4CF08D
:103010000C01426F425101E14BD0420501E1F1D771
:10302000020E425D2CE1030E415D01E241D0436B93
:10303000446BADEC4CF00C01426F040E425D08E1B4
:10304000ADEC4CF00C01446FADEC4CF00C01436F57
:10305000180E435D020E445901E22AD0B40ED88006
:103060004355050E445506E2B40EF36E050EF46E9C
:1030700024D01DD043CCF3FF44CCF4FF1ED0020E6D
:10308000415D01E215D0ADEC4CF00C01426F4251B4
:10309000415D01E20DD042510201236F246B020118
:1030A000216B226BC1EC4CF00C014251415FA9D75E
:1030B000180EF36E020EF46E00D01200B5CEE9FFCA
:1030C000B6CEEAFF0D0EE926000EEA22EFCF33FC62
:1030D000B5CEE9FFB6CEEAFF080EE926000EEA22D9
:1030E000EECF34FCEECF35FCEECF36FCEFCF37FC25
:1030F000B5CEE9FFB6CEEAFF040EE926000EEA22BD
:10310000EECF38FCEECF39FCEECF3AFCEFCF3BFCF4
:103110000E0140914093409540B913D0D5EC63F037
:1031200006C037FE07C038FE08C039FE09C03AFEA7
:103130000E0E0E013727270E3823070E3923000EF7
:103140003A233F51050A48E0010A08E0B7CE3CFCAB
:10315000B8CE3DFC0C0133A1CFD0CBD00C0133A5B0
:1031600003D0E3DE46EF20F033A912D034CC06FEC4
:1031700035CC07FE36CC08FE37CC09FE0E01AE6B0F
:103180000E01040EAD6F4AEC11F0CFDE46EF20F0D9
:1031900033A31FD038CC0AFE39CC0BFE3ACC0CFE40
:1031A0003BCC0DFE0E010A2B000E0B230C230D232E
:1031B00001DFF3CF25FEF4CF26FE0E01010EAE6F28
:1031C0000E01120EAD6F4AEC11F00E01060E3F6FAC
:1031D00001D0ABDE46EF20F00C0133A502D046EF64
:1031E00020F033A934D0340EE96E0C0EEA6EEE50A6
:1031F0000E01061909E1EE50071906E1EE50081913
:1032000003E1EE50091900E122E006CE38FC07CEBA
:1032100039FC08CE3AFC09CE3BFC34CC06FE35CC5A
:1032200007FE36CC08FE37CC09FE0E01010EAE6F4C
:103230000E01040EAD6F4AEC11F038CC06FE39CC0D
:1032400007FE3ACC08FE3BCC09FE46EF20F00C010D
:1032500033A34DD038CC0AFE39CC0BFE3ACC0CFE51
:103260003BCC0DFE0E010A2B000E0B230C230D236D
:10327000B5CEE9FFB6CEEAFF0E0EE926000EEA2231
:10328000EECF14FEEDCF15FE95DEF3CF25FEF4CF85
:1032900026FE0C0133A920D00E01010EAE6F0E01E7
:1032A000100EAD6F4AEC11F00E01070E3F6FD5EC1A
:1032B00063F006C037FE07C038FE08C039FE09C0FB
:1032C0003AFE0E0E0E013727270E3823070E39233C
:1032D000000E3A2340990BD00E01010EAE6F0E0185
:1032E000120EAD6F4AEC11F00E01060E3F6F46EF65
:1032F00020F03C2B000E3D2333A303D03C2B000ECB
:103300003D230E013551335D3651345914E32B51B1
:103310002D5D146E2E512C55156E3551335D166E84
:1033200034513655176E0C011650145C316F17501E
:103330001558326F0DD03351355D0C01316F0E01D0
:10334000345136590C01326F010E315F000E325B81
:103350000A0EE96E0E0EEA6EEE50385D2B6FEE50DF
:1033600039592C6FEE503A592D6FEE503B592E6F54
:103370002BCC2FFC2CCC30FC3E6B3C513D1101E1A1
:103380007BD03151321101E176D0800E2E1512E141
:1033900031CC14F032CC15F0166A176A14502B5D3C
:1033A00015502C5916502D5917502E5903E2010E65
:1033B0003E6F3DD03CCC14F03DCC15F0166A176A38
:1033C0002B0EE96E0C0EEA6EEE501426EE5015220E
:1033D000EE501622EE5017221734000E171809E689
:1033E000D880000E1454000E1554000E1654000E12
:1033F00017541DE23C51315D186E32513D55196E26
:103400001A6A1B6A19AE02D01A681B681B502E1963
:10341000E8AE02D02E3508D02B51185C2C5119582B
:103420002D511A582E511B5802E3010E3E6F31CC1C
:1034300014F032CC15F0166A176A2E511718E8AE40
:1034400002D0173408D014502B5D15502C5916504B
:103450002D5917502E590FE22F513C25186E30511F
:103460003D21196E193404E218500008000E195459
:1034700002E2010E3E6F1CD02B512C112D112E118A
:1034800003E1010E3E6F14D0800E2E1511E131CCF8
:1034900014F032CC15F0166A176A14502B5D1550D3
:1034A0002C5916502D5917502E5902E2010E3E6F1D
:1034B0003E510CE133B508D00E01010EAE6F0E0186
:1034C000100EAD6F4AEC11F046EF20F0060E3315EA
:1034D00003E02BDD46EF20F033B902D046EF20F0B9
:1034E0000E013F510C0A01E19CD20B0A40E00F0A89
:1034F0003EE0010A3CE0020A3AE0010A38E00C0A28
:1035000001E0ADD2340EE96E0C0EEA6EEE500619F3
:1035100009E1EE50071906E1EE50081903E1EE50FB
:10352000091900E122E006CE38FC07CE39FC08CEAE
:103530003AFC09CE3BFC34CC06FE35CC07FE36CC3B
:1035400008FE37CC09FE0E01010EAE6F0E01040E0F
:10355000AD6F4AEC11F038CC06FE39CC07FE3ACC00
:1035600008FE3BCC09FE46EF20F0070E3F6F0E51E0
:103570002F5D0C01296F0E010F5130590C012A6F7C
:10358000800E2A150CE00E0129512B5D146E2C5172
:103590002A55156E14500C01292715502A2329CCC1
:1035A00014F02ACC15F0166A176A060EE96E0E0E94
:1035B000EA6EEE501424256FEE501520266FEE5063
:1035C0001620276FEE501720286F250EE96E0C0E7F
:1035D000EA6EEE50345D256FEE503559266FEE5091
:1035E0003659276FEE503759286F2835000E2819A5
:1035F00009E6D880000E2555000E2655000E2755E9
:10360000000E28551DE20E012451010B0AE0010EA7
:103610000C01251905E1265103E1275101E128514B
:103620000AE00E01AE6B0E01100EAD6F4AEC11F008
:1036300046EF20F005D03407000E355B365B375B74
:103640000E0131510E5D146E0F513255156E166A12
:10365000176A15AE02D016681768060EE96E0E0ED0
:10366000EA6E1450EE5C0C01256F1550EE58266F73
:103670001650EE58276F1750EE58286F0E01315133
:103680000E5D32510F5911E229512B5D146E2C51F0
:103690002A55156E166A176A14500C01255F1550CD
:1036A000265B1650275B1750285B250EE96E0C0E23
:1036B000EA6EEE500C01345D256FEE503559266FE1
:1036C000EE503659276FEE503759286F2835000EC7
:1036D000281909E6D880000E2555000E2655000E43
:1036E0002755000E285501E397D00E0129512B5D77
:1036F000146E2C512A55156E166A176A0C01255145
:10370000145C26511558275116582851175801E2B4
:1037100083D00E0124972499419131CE29FC32CED9
:103720002AFC0C0125510E0131270C0126510E01F6
:1037300032230C0129510E010E5D0C012A510E019C
:103740000F591BE331510E5D32510F5915E20E51E5
:10375000315D146E32510F55156E000114500E017B
:103760000627000115500E010723000E0823092328
:1037700031CE0EFE32CE0FFE2FD029512B5D146EAE
:103780002C512A55156E0E5114240C01296F0E016F
:103790000F5115200C012A6F0E0131510C01295DCA
:1037A0000E0132510C012A5917E229510E01315DE7
:1037B000146E32510C012A55156E000114500E0181
:1037C0000627000115500E010723000E08230923C8
:1037D00031CE0EFE32CE0FFE0E012B51315D2C513B
:1037E00032590AE329512B5D146E2C512A55156E5E
:1037F0001450315F1550325B2B510E5D2C510F5917
:103800000AE329512B5D146E2C512A55156E145064
:103810000E5F15500F5B3FD00E010E51311902E1C2
:103820000F51321938E024A735D024A932D03151B4
:103830000E5D146E0F513255156E166A176A15AE6D
:1038400002D0166817681450065F1550075B1650B3
:10385000085B1750095B31510E5D32510F5914E26C
:1038600029512B5D146E2C512A55156E166A176A54
:1038700015AE02D0166817681450065F1550075B26
:103880001650085B1750095B31CE0EFE32CE0FFE8C
:103890004185248924872F51311902E13051321991
:1038A0002FE141B715D0D5EC63F006C037FE07C055
:1038B00038FE08C039FE09C03AFE0E0E0E01372749
:1038C000270E3823070E3923000E3A23409918D0CB
:1038D000060EE96E0E0EEA6EEE500C01341909E187
:1038E000EE50351906E1EE50361903E1EE50371966
:1038F00000E106E10E012451010B02E040994197DD
:10390000340EE96E0C0EEA6EEE500E01065D146E7A
:10391000EE500759156EEE500859166EEE500959C3
:10392000176EB5CEE9FFB6CEEAFF0E0EE926000E01
:10393000EA220C011450EE5C3F6F1550EE58406FB8
:103940000E011451151106E10C013F51401102E026
:103950000E0141833FCC14FE40CC15FE080E0E0133
:103960003F5D2DE1060EE96E0E0EEA6EEE500C0183
:10397000341909E1EE50351906E1EE50361903E12C
:10398000EE50371900E11AE10E012451010B16E047
:10399000D5EC63F006C037FE07C038FE08C039FE1C
:1039A00009C03AFE870E0E013727930E3823030E07
:1039B0003923000E3A234089090E3F6F31D0090E9A
:1039C0003F5D16E10C0133B112D034CC06FE35CC8C
:1039D00007FE36CC08FE37CC09FE0E01AE6B0E0199
:1039E000140EAD6F4AEC11F095EC17F04FD318D0D0
:1039F0000A0E3F5D15E1060EE96E0E0EEA6EEE5000
:103A00000C01341909E1EE50351906E1EE50361972
:103A100003E1EE50371900E102E195EC17F036D3DF
:103A20001FD006CE14F007CE15F008CE16F009CE42
:103A300017F0142A000E15221622172214500C011A
:103A4000341909E11550351906E11650361903E10C
:103A50001750371900E102E195EC17F017D300D0A9
:103A60000C0133BB13D30B0E0E013F5D01E10ED3EE
:103A70000A0E3F5D01E10AD30C0E3F5D01E106D362
:103A8000B751B81101E14ED20C01303504E22F518B
:103A90000008000E305501E2E8D0B5CEE9FFB6CE01
:103AA000EAFF0C0EE926000EEA22EF50F00BE84286
:103AB000E842E842E842040DF350146E156A2F51B3
:103AC000145C02019A6F0C013051155802019B6F72
:103AD0008EEC60F00C012F510E01B7270C01305114
:103AE0000E01B823B7510C01315D0E01B8510C0124
:103AF000325904E231CCB7FE32CCB8FE0E01B751D8
:103B00000A27B8510B23000E0C230D233351B72580
:103B1000146E3451B821156E14502D5D15502E5968
:103B200046E233512D5D0C01296F0E0134512E599F
:103B30000C012A6F010E2927000E2A2329CCC5FE6D
:103B40002ACCC6FE0E01C46B0E01C269C36944CE05
:103B5000C1FE33CEBFFE34CEC0FED0DB0C012951F6
:103B60000E01B75D0E01C56F0C012A510E01B85947
:103B70000E01C66F0E01C46B0E01C269C36944CE4B
:103B8000C1FE2BCEBFFE2CCEC0FEB8DB0C012951EE
:103B90000E01B75D146EB8510C012A55156E0E0159
:103BA0002B511424336F2C511520346F15D0B7CE00
:103BB000C5FEB8CEC6FE0E01C46B0E01C269C36954
:103BC00044CEC1FE33CEBFFE34CEC0FE97DB0E0125
:103BD000B7513327B8513423221D01E1231D44E09E
:103BE000B751225FB851235B165122250C01296F72
:103BF0000E01175123210C012A6F800E2A1504E0B3
:103C00000E012269236930D00E01233504E22251CE
:103C10000008000E235528E30C0129510E010A2744
:103C20000C012A510E010B23000E0C230D230C0155
:103C300029510E0133270C012A510E01342333512F
:103C40002D5D34512E590EE22B512D5D146E2E51E7
:103C50002C55156E010E1426000E15221450335FDC
:103C60001550345B226923695DD1303504E22F5150
:103C70000008000E305501E355D10E01B7510C017B
:103C80002F25146E0E01B8510C013021156E145001
:103C9000315D1550325909E22F51315D0E01B76F78
:103CA0000C01305132590E01B86FB5CEE9FFB6CED6
:103CB000EAFF0C0EE926000EEA22EF50F00BE84274
:103CC000E842E842E842040DF35002019A6F9B6B10
:103CD0008EEC60F00E0133510C012F25166E0E0193
:103CE00034510C013021176E16500E01B725146E99
:103CF0001750B821156E14502D5D15502E596EE2D7
:103D000033512D5D146E2E513455156E010E14264F
:103D1000000E15220C012F51145C296F30511558DB
:103D20002A6F800E2A1531E129CCC5FE2ACCC6FEA9
:103D30000E01C46B0E01C269C36944CEC1FE0E01FF
:103D400033510C012F250E01BF6F0E0134510C01B0
:103D500030210E01C06FD2DA0C0129510E01B75D7E
:103D60000E01C56F0C012A510E01B8590E01C66F24
:103D70000E01C46B0E01C269C36944CEC1FE2BCED5
:103D8000BFFE2CCEC0FEBADA28D0B7CEC5FEB8CE64
:103D9000C6FE0E01C46B0E01C269C36944CEC1FEEA
:103DA0000E0133510C012F25146E0E0134510C01FC
:103DB0003021156E0E012B512D5D166E2E512C5596
:103DC000176E010E1626000E17220E011650145CF7
:103DD000BF6F17501558C06F91DA18D0B7CEC5FE17
:103DE000B8CEC6FE0E01C46B0E01C269C36944CED3
:103DF000C1FE0E0133510C012F250E01BF6F0E01C4
:103E000034510C0130210E01C06F78DA0E01221DF1
:103E100001E1231D09E12FCC22FE30CC23FEB7CED9
:103E200016FEB8CE17FE7ED022510C012F5D0E017A
:103E300023510C0130593DE22F510E01B725146E6C
:103E40000C0130510E01B821156E22511625166E47
:103E500023511721176E1450165C155017580FE395
:103E60000C012F510E01B725186E0C0130510E01B7
:103E7000B821196E2251185C2351195805E2B7CEAA
:103E800016FEB8CE17FE10D022511625146E2351FF
:103E90001721156E0C012F51145C0E01166F0C01C9
:103EA000305115580E01176F2FCC22FE30CC23FE57
:103EB00039D02F510E01B725146E0C0130510E016F
:103EC000B821156E22511625166E23511721176E33
:103ED0001450165C1550175825E222511625146E01
:103EE00023511721156E0C012F51145C30511558B8
:103EF00019E32F510E01B725186E0C0130510E0138
:103F0000B821196E2251185C166E23511958176E7C
:103F10001651165C146E17511758156E145016274B
:103F2000155017230C013C513D1124E0070E0E01E2
:103F30003F5D04E033CE35FE34CE36FE40AF0BD0CD
:103F40000E01010EAE6F0E01100EAD6F4AEC11F0B6
:103F50008DEC00F00FD0408F40BD0CD0408DE8ECD0
:103F600063F006C03DFE07C03EFE120E0E013D2767
:103F7000000E3E230C0133A189D00ACE14F00BCEE3
:103F800015F00CCE16F00DCE17F0142A000E1522E7
:103F9000162217223CCC18F03DCC19F01A6A1B6A85
:103FA000380EE96E0C0EEA6EEE501826EE5019220D
:103FB000EE501A22EE501B221450181809E1155029
:103FC000191806E116501A1803E117501B1800E1E2
:103FD0005DE10E010A2B000E0B230C230D233F5134
:103FE000090A41E0010A1EE00F0A0EE0010A01E0A1
:103FF00044D00C0E3F6F0E01010EAE6F0E01110E7C
:10400000AD6F4AEC11F042D00B0E3F6FE8EC63F05D
:1040100006C03DFE07C03EFE240E0E013D27000EE9
:104020003E232CD0060EE96E0E0EEA6EEE500C0109
:10403000341909E1EE50351906E1EE50361903E165
:10404000EE50371900E10BE10E01AE6B0E01100EC0
:10405000AD6F4AEC11F095EC17F018D003D00E01BB
:104060000A0E3F6F0BD00E01AE6B0E01100EAD6F3E
:104070004AEC11F095EC17F009D000D00E01010EBA
:10408000AE6F0E01100EAD6F4AEC11F012000E0172
:10409000B951146E156A030E145C000E155802E334
:1040A000000E2BD1B9CE45FE46EC00F00E01BA5100
:1040B000BB1103E1010EBA6FBB6B29512D5D0C01E1
:1040C000006F0E012A512E590C01016F010E005F85
:1040D000000E015B0E01BA51BC25146EBB51BD210F
:1040E000156E0C011450005D1550015902E2000ECE
:1040F00004D18DEC00F0030E0E01BE1502E1030E9B
:10410000BE13BCCE04FCBDCE05FCBA51BC25146E5A
:10411000BB51BD21156E14500C01005F1550015BA1
:104120000E01BEA314D0BEA10DD000CC14F001CC62
:1041300015F0D8901532143214500C010427155084
:10414000052305D00C0100510427015105230E0160
:1041500029510C010425006F0E012A510C01052183
:10416000016F010E0027000E012333CE02FC34CE76
:1041700003FC0E01221D01E1231D22E02251162520
:10418000146E23511721156E14500C01022715507F
:10419000032302510E012D5D0C0103510E012E5916
:1041A0000FE22B512D5D146E2E512C55156E010E04
:1041B0001426000E152214500C01025F1550035BEB
:1041C0000C0102510E01355D0C0103510E013659EF
:1041D00017E20C0100510E01355D0C0101510E0179
:1041E00036590DE2BEA503D0000E87D008D000CC12
:1041F00035FE01CC36FE00CC33FE01CC34FE26D099
:1042000035510C01025D0E0136510C01035916E2C5
:1042100000510E012B5D0C0101510E012C590DE2D4
:10422000BEA503D0000E69D008D000CC35FE01CC6D
:1042300036FE00CC33FE01CC34FE08D000CC35FE77
:1042400001CC36FE00CC33FE01CC34FE0E013551DC
:104250000C01025D0E0136510C01035930E2040ECF
:104260000E01BE152CE02B510C01025D0E01C56F35
:104270000E012C510C0103590E01C66F44CEC4FE31
:104280002BCEC2FE2CCEC3FE44CEC1FE00CCBFFE60
:1042900001CCC0FE33D80E013551335D365134594F
:1042A0000EE20C0100510E012B5D146E2C510C011D
:1042B0000155156E14500E01335F1550345B00CC60
:1042C0002BFE01CC2CFE29CE0EFE2ACE0FFE29CECF
:1042D00031FE2ACE32FE29CE2FFE2ACE30FE070E28
:1042E0000E013F5D08E10E01010EAE6F0E01100ED2
:1042F000AD6F4AEC11F0010E00D012000E01C45156
:1043000031E0010A01E05DD0C15116E0010A01E08F
:1043100028D0C5CEE6FFC6CEE6FFC2CEE6FFC3CEAE
:10432000E6FFBFCEE6FFC0CEE6FF0EEC61F0146EF6
:10433000060EE15E145015D0BF1D01E1C01D06E060
:10434000BFCE11F2C0CE12F210EC4AF0C5CE28F268
:10435000C6CE29F2C2CE26F2C3CE27F211EC4DF022
:1043600000D02FD0C15118E0010A01E029D0C21DB0
:1043700001E1C31D06E0C2CE13F2C3CE14F230EC4D
:104380004AF0C5CE23F2C6CE24F2BFCE21F2C0CE73
:1043900022F2C1EC4CF014D0C5CE1FF2C6CE20F2F2
:1043A000C2CE1DF2C3CE1EF2BFCE1BF2C0CE1CF297
:1043B00040EC4BF0A0EC4CF0000901E1FBD700D041
:1043C00000D012000E01C95118E0010A01E069D0C5
:1043D000CDCEE6FFCECEE6FFCACEE6FFCBCEE6FFE1
:1043E000CCCEE6FFC7CEE6FFC8CEE6FF39EC61F0E3
:1043F000146E070EE15E145054D0C71D01E1C81DB4
:1044000006E0C7CE11F2C8CE12F210EC4AF0100E40
:104410000C01106F116B0E01CD51CE1141E00C015A
:1044200010510E01CD5D0C0111510E01CE5904E267
:10443000CDCE10FCCECE11FC10CCE6FF11CCE6FFA9
:10444000CACEE6FFCBCEE6FFCCCEE6FF000EE66E90
:104450000C0EE66E39EC61F0146E070EE15E14503E
:1044600010CC28F211CC29F20201000E266F0C0E9E
:10447000276F11EC4DF010CC14F011CC15F0166A2A
:1044800014500E01CA271550CB231650CC230C0113
:1044900010510E01CD5F0C0111510E01CE5BBBD747
:0444A00000D0120036
:0C44A400330E0201781905E1795103E1A3
:1044B0007A5101E17B5138E0160E781905E1795106
:1044C00003E17A5101E17B512CE0050E781905E1F9
:1044D000795103E17A5101E17B5120E0020E781914
:1044E00005E1795103E17A5101E17B510DE0010EC3
:1044F000781905E1795103E17A5101E17B5101E03D
:104500001DD0A5EC55F035D00201820E896FB60E94
:104510008A6F000E8B6FBDEC2FF02BD098EC54F00F
:1045200028D0F2EC54F025D00201770E896FB60E38
:104530008A6F000E8B6FBDEC2FF01BD0040E0E01A6
:104540006C6F6D6B0E01720E696FB60E6A6F000EA6
:104550006B6F01018251E96EEA6AD890E936EA365A
:104560007E0EE926010EEA22EE52EFCF68FE8EECB7
:1045700005F000D012000E017E0E626F0101825123
:10458000E96EEA6AD890E936EA367E0EE926010E2F
:10459000EA22EE52EFCF61FE3CEC04F000D01200B4
:1045A0000101826B020E825D58E28251E96EEA6A75
:1045B000D890E936EA367E0EE926010EEA22EF6A45
:1045C0000E01080E4D6F500E0E014B6F4C6B0E011D
:1045D0004A6B0E01466B476B486B496B3BEC02F034
:1045E000E66E01018251E96EEA6AD890E936EA3650
:1045F0007E0EE926010EEA22EE52E552E750EF6EFA
:104600001469156982517E0DF3CF14F0F4CF15F0C3
:10461000166A176A1F0E1526000E1622172214C0DE
:1046200011F215C012F210EC4AF0F3CF00FCF4CFF7
:1046300001FC7E0E0201286F296B0201000E266F1D
:10464000010E276F11EC4DF000CC11F201CC12F2EB
:1046500010EC4AF00101822BA5D7826B12000C01ED
:10466000AD6B020EAD5D01E385D0AD51E96EEA6A36
:10467000D890E936EA367E0EE926010EEA22EE529D
:10468000EF50FE0801E173D0AD51E96EEA6AD890AF
:10469000E936EA367E0EE926010EEA22EE52EFCF27
:1046A0004EFEFCEC02F000093BE0ADCC7CF263D89E
:1046B00001018251E96EEA6AD890E936EA367E0E47
:1046C000E926010EEA22EF6AFF0E145D06E014C12E
:1046D000D2F0EBEC3EF001011469FF0E155D06E02F
:1046E00015C1D2F0EBEC3EF0010115690E01040E8C
:1046F000BE6F0E01BC6BBD6B010E0E01BA6FBB6BC2
:1047000001018251E96EEA6AD890E936EA367E0EF6
:10471000E926010EEA22EE52EFCFB9FE47EC20F077
:104720000C01AD51E96EEA6AD890E936EA367E0EA0
:10473000E926010EEA22EF5016E1AD51E96EEA6A70
:10474000D890E936EA367E0EE926010EEA22EE52CC
:10475000EFCF77FEFFEC06F0F3CF14F0F4CF15F0B7
:104760001450151004E0ADCC7CF205D85FD80C01D4
:10477000AD2B77D712000101825102017C5D01E16E
:1047800054D0010182517E0DF3CF14F0F4CF15F017
:10479000166A176A1F0E1526000E1622172214C05D
:1047A00011F215C012F210EC4AF0F3CF00FCF4CF76
:1047B00001FC7E0E0201286F296B0201000E266F9C
:1047C000010E276F11EC4DF000CC11F201CC12F26A
:1047D00010EC4AF002017C517E0DF3CF14F0F4CFBF
:1047E00015F0166A176A1F0E1526000E16221722DC
:1047F00014C013F215C014F230EC4AF0F3CF00FCF1
:10480000F4CF01FC7E0E0201236F246B0201000E27
:10481000216F010E226FC1EC4CF000CC13F201CCE1
:1048200014F230EC4AF07CC282F112000C01010E4D
:10483000916F01018251E96EEA6AD890E936EA3651
:104840007E0EE926010EEA22EF500B0A02E118EF74
:104850002DF0010A02E1DBEF2CF0030A02E1A6EFE2
:104860002CF0010A02E182EF2CF00F0A02E165EF61
:104870002AF0010A02E12FEF2AF0030A02E123EFF6
:104880002AF0010A02E111EF2AF0070A02E1E1EF42
:1048900029F0010A01E1C8D3030A66E0010A02E037
:1048A00046EF2DF08251E96EEA6AD890E936EA3691
:1048B0007E0EE926010EEA22EE52EFCF77FEFFECE4
:1048C00006F0F3CF8BFCF4CF8CFC0C018B518C11D8
:1048D00049E001011A0E106F010E116F8251E96E4D
:1048E000EA6AD890E936EA367E0EE926010EEA2217
:1048F000010EEF6E1769166BD5EC63F006C008F178
:1049000007C009F108C00AF109C00BF1BF0E01018F
:1049100008272F0E0923200E0A23000E0B230C69F3
:104920000D690E690F69006B016B026B036B0E0161
:10493000050EBE6F0E01BC6BBD6B010E0E01BA6F92
:10494000BB6B01018251E96EEA6AD890E936EA361A
:104950007E0EE926010EEA22EE52EFCFB9FE47ECB9
:1049600020F002D046EF2DF00E01A66B0E01A46BD5
:10497000A56B0E01A26BA36B0E010A0EA16F0101C4
:104980008251E96EEA6AD890E936EA367E0EE92667
:10499000010EEA22EE52EFCFA0FEE2EC0CF0F3CFD4
:1049A00014F0F4CF15F00001141C01E1151C65E1B1
:1049B00001018251E96EEA6AD890E936EA367E0E44
:1049C000E926010EEA22EE52EFCF80FE46EC08F017
:1049D000F3CF14F0F4CF15F01450151011E10101CC
:1049E000050E186F8251E96EEA6AD890E936EA3608
:1049F0007E0EE926010EEA22070EEF6E0C01916B86
:104A0000D5EC63F001010851065C146E095107589A
:104A1000156E0A510858166E0B510958176E173447
:104A2000000E171809E6D880000E1454000E155415
:104A3000000E1654000E17541EE28251E96EEA6A07
:104A4000D890E936EA367E0EE926010EEA22EE52C9
:104A5000EFCF50FE2AEC03F001018251E96EEA6AC1
:104A6000D890E936EA367E0EE926010EEA220B0ED0
:104A7000EF6E0C01916B46EF2DF0D5EC63F006C0A4
:104A800008F107C009F108C00AF109C00BF1BF0E17
:104A9000010108272F0E0923200E0A23000E0B23E5
:104AA0000E01A66B0E01A46BA56B0E01A26BA36B8E
:104AB0000E01200EA16F01018251E96EEA6AD890C1
:104AC000E936EA367E0EE926010EEA22EE52EFCFF3
:104AD000A0FEE2EC0CF0F3CF8BFCF4CF8CFC0C01CD
:104AE000050ED8808B55000E8C5503E2050E8B6F9A
:104AF0008C6B010E8B250E017E6F000E0C018C213C
:104B00000E017F6F0E011A0E7C6F010E7D6F010189
:104B10008251E96EEA6AD890E936EA367E0EE926D5
:104B2000010EEA22EE52EFCF7BFE93EC07F0030E6C
:104B3000E66EE66A9B0EE66EB20EE66E000EE66E5E
:104B40001A0EE66E010EE66EEFEC60F0146E070EC4
:104B5000E15E1450000948E10101186B0E01A66BDB
:104B60000E01A46BA56B0E01A26BA36B0E01200EB0
:104B7000A16F01018251E96EEA6AD890E936EA36FE
:104B80007E0EE926010EEA22EE52EFCFA0FEE2EC05
:104B90000CF0F3CF8BFCF4CF8CFC0E01A66B8BCC0E
:104BA000A4FE8CCCA5FE0E01A26BA36B0E013F0EE2
:104BB000A16F01018251E96EEA6AD890E936EA36BE
:104BC0007E0EE926010EEA22EE52EFCFA0FEE2ECC5
:104BD0000CF0F3CF8DFCF4CF8EFC0C018D518B5D6E
:104BE0008E518C5914E217D00101070E186F8251B3
:104BF000E96EEA6AD890E936EA367E0EE926010EB9
:104C0000EA22070EEF6E0C01916B46EF2DF08DCC72
:104C10008BFC8ECC8CFC590ED8808B55000E8C559D
:104C200013E20101050E186F8251E96EEA6AD8900D
:104C3000E936EA367E0EE926010EEA22070EEF6E0D
:104C40000C01916B46EF2DF08BCC7EFE8CCC7FFE61
:104C50000E011A0E7C6F010E7D6F01018251E96E0B
:104C6000EA6AD890E936EA367E0EE926010EEA2293
:104C7000EE52EFCF7BFE93EC07F0F3CF8DFCF4CF39
:104C80008EFC1A0E0C018D25E96E010E8E21EA6E46
:104C9000EF6A02011A0E7E6F010E7F6F56EC2EF046
:104CA0001A0EE66E010EE66EC5EC61F0E552E552B5
:104CB000F3CF8DFCF4CF8EFC8DCCE9FF8ECCEAFFD8
:104CC000E906000EEA5A1A0EE926010EEA22EF5012
:104CD0002F0809E000011B0ECB6F010ECC6FD1EC49
:104CE0003BF00101146FFF0E0101145D4CE18DCC0E
:104CF000E9FF8ECCEAFFE906000EEA5A1A0EE92611
:104D0000010EEA22EF502F080EE00C018DCCE9FFD6
:104D10008ECCEAFF8D2B000E8E231A0EE926010E93
:104D2000EA222F0EEF6E910EE66EB20EE66E000EC8
:104D3000E66E1A0E0C018D25146E010E8E21156E75
:104D400014C0E6FF15C0E6FFACEC61F0166E050E70
:104D5000E15E1650910EE66EB20EE66E000EE66E45
:104D6000D3EC61F0E552E552E55207500C018D2776
:104D700008508E2300011B0ECB6F010ECC6FD1ECBF
:104D80003BF00101146F1A0E0C018D25926F010E7C
:104D90008E21936F010E925F000E935B1A0E921993
:104DA00002E1010E93190CE092CCE9FF93CCEAFFEB
:104DB000EF502E0801E104D09207000E935BEED76E
:104DC000922B000E93230101196B0B0EE76E19193C
:104DD000E8AE02D0E73402D0E750195D42E2A10EFE
:104DE000146ECA0E156E000E166E19C117F0186AF1
:104DF000196A17AE02D018681968030E0C6E0D6A96
:104E00000E6A17C007F018C008F019C009F0B7EC17
:104E100064F004C017F005C018F006C019F0145073
:104E20001724F36E15501820F46E16501920F86EE2
:104E3000F4CFF7FFF3CFF6FF0900F5CF55F20900E5
:104E4000F5CF56F20800F5CF57F292CC53F293CC3F
:104E500054F23EEC52F0000901E103D00101192B9C
:104E6000B4D7FF0E0101145D18E014C1E8F05BEC4B
:104E700043F0F350020B11E014C1F3F089EC45F05C
:104E8000F3CFD0F0F4CFD1F0010E0001D027000E07
:104E9000D12363EC3EF00101156F0E01A66B0E01EC
:104EA000A46BA56B0E01A26BA36B0E01200EA16F6C
:104EB00001018251E96EEA6AD890E936EA367E0E3F
:104EC000E926010EEA22EE52EFCFA0FEE2EC0CF052
:104ED000F3CF8BFCF4CF8CFC0C018B518C115BE07D
:104EE0000101010E166F0E018F0E796F0C0E7A6F95
:104EF00001018251E96EEA6AD890E936EA367E0EFF
:104F0000E926010EEA22EE52EFCF78FE3DEC07F0E3
:104F10000C018B07000E8C5B620E8B5D000E8C59B2
:104F200013E30101050E186F8251E96EEA6AD89009
:104F3000E936EA367E0EE926010EEA22070EEF6E0A
:104F40000C01916B46EF2DF08BCC7EFE8CCC7FFE5E
:104F50000E011A0E7C6F010E7D6F01018251E96E08
:104F6000EA6AD890E936EA367E0EE926010EEA2290
:104F7000EE52EFCF7BFE93EC07F0F35001011027C8
:104F8000F450112310C1E9FF11C1EAFF102B000EEC
:104F90001123260EEF6E0E01A66B0E01A46BA56BFE
:104FA0000E01A26BA36B0E010A0EA16F01018251CB
:104FB000E96EEA6AD890E936EA367E0EE926010EF5
:104FC000EA22EE52EFCFA0FEE2EC0CF0F3CF8BFC26
:104FD000F4CF8CFC010E0C018B250E017E6F000EB0
:104FE0000C018C210E017F6F0E017C6B7D6B01012A
:104FF0008251E96EEA6AD890E936EA367E0EE926F1
:10500000010EEA22EE52EFCF7BFE93EC07F0010196
:105010008251E96EEA6AD890E936EA367E0EE926D0
:10502000010EEA22020EEF6E0E01A66B0E01A46BBA
:10503000A56B0E01A26BA36B0E010A0EA16F0101FD
:105040008251E96EEA6AD890E936EA367E0EE926A0
:10505000010EEA22EE52EFCFA0FEE2EC0CF0F3CF0D
:105060008BFCF4CF8CFC0C018B1D01E18C1D64E1E9
:1050700001018251E96EEA6AD890E936EA367E0E7D
:10508000E926010EEA22EE52EFCF80FE46EC08F050
:10509000F3CF14F0F4CF15F01450151011E1010105
:1050A000050E186F8251E96EEA6AD890E936EA3641
:1050B0007E0EE926010EEA22070EEF6E0C01916BBF
:1050C000D5EC63F001010851065C146E09510758D4
:1050D000156E0A510858166E0B510958176E173481
:1050E000000E171809E6D880000E1454000E15544F
:1050F000000E1654000E17541EE28251E96EEA6A41
:10510000D890E936EA367E0EE926010EEA22EE5202
:10511000EFCF50FE2AEC03F001018251E96EEA6AFA
:10512000D890E936EA367E0EE926010EEA220B0E09
:10513000EF6E0C01916B44D1D5EC63F006C008F121
:1051400007C009F108C00AF109C00BF1BF0E010147
:1051500008272F0E0923200E0A23000E0B230C0113
:10516000010E8B1901E18C5127E1020E0E017E6FB9
:105170007F6B0E017C6B7D6B01018251E96EEA6AE7
:10518000D890E936EA367E0EE926010EEA22EE5282
:10519000EFCF7BFE93EC07F001018251E96EEA6AE2
:1051A000D890E936EA367E0EE926010EEA22030E91
:1051B000EF6E0C01916B04D10E01A66B8BCCA4FE9B
:1051C0008CCCA5FE0E01A26BA36B0E013A0EA16F53
:1051D00001018251E96EEA6AD890E936EA367E0E1C
:1051E000E926010EEA22EE52EFCFA0FEE2EC0CF02F
:1051F000F3CF8DFCF4CF8EFC020E0C018D27000E38
:105200008E23916B100ED8808D55000E8E551DE2A9
:10521000010E8B250E017E6F000E0C018C210E01FC
:105220007F6F0E017C6B7D6B01018251E96EEA6A32
:10523000D890E936EA367E0EE926010EEA22EE52D1
:10524000EFCF7BFE93EC07F0EFD68DCC7EFE8ECCBD
:105250007FFE0E01940E7C6F0C0E7D6F010182515A
:10526000E96EEA6AD890E936EA367E0EE926010E42
:10527000EA22EE52EFCF7BFE93EC07F08DCCE9FFF4
:105280008ECCEAFFE906000EEA5A940EE9260C0ECF
:10529000EA22EF6A0C018D518B5F8E518C5B906B13
:1052A0009051146E156A030E145C000E155849E2F5
:1052B000070E146ECB0E156E000E166E90CC17F006
:1052C000186A196A030E0C6E0D6A0E6A17C007F091
:1052D00018C008F019C009F0B7EC64F004C017F06A
:1052E00005C018F006C019F014501724F36E1550BD
:1052F0001820F46E16501920F86EF4CFF7FFF3CF94
:10530000F6FF0900F5CFE6FF0900F5CFE6FF08003C
:10531000F5CFE6FF940EE66E0C0EE66E96EC61F0AD
:105320001A6E050EE15E1A50000908E190CC7DF27C
:1053300055EC2EF00C01010E916F03D00C01902B57
:10534000AFD791511FE00E01A66B0E01A46BA56BA8
:105350000E01A26BA36B0E010A0EA16F0101825117
:10536000E96EEA6AD890E936EA367E0EE926010E41
:10537000EA22EE52EFCFA0FEE2EC0CF0F3CF8BFC72
:10538000F4CF8CFC010E0C018B250E017E6F000EFC
:105390000C018C210E017F6F0E017C6B7D6B010176
:1053A0008251E96EEA6AD890E936EA367E0EE9263D
:1053B000010EEA22EE52EFCF7BFE93EC07F034D6DB
:1053C00065D310C1E9FF11C1EAFFEF6A02011A0EAD
:1053D0007E6F010E7F6F56EC2EF0F3CF10F1F4CFFD
:1053E00011F101018251E96EEA6AD890E936EA3694
:1053F0007E0EE926010EEA22040EEF6E16510CE134
:105400008251E96EEA6AD890E936EA367E0EE926DC
:10541000010EEA22050EEF6E0C01916B0101166B75
:1054200035D332EC54F0020801E130D3010182514E
:10543000E96EEA6AD890E936EA367E0EE926010E70
:10544000EA22050EEF6E8251E96EEA6AD890E936DB
:10545000EA367E0EE926010EEA22060EEF6EFF0EF8
:10546000145D11E1040E186F8251E96EEA6AD8905A
:10547000E936EA367E0EE926010EEA22070EEF6EC5
:105480000C01916B03D3006B016B026B036BFF0E7E
:10549000155D05E1046905690669076909D0000120
:1054A000040EDC6F010EDD6F15C1DBF0D2EC40F0B5
:1054B00001018251E96EEA6AD890E936EA367E0E39
:1054C000E926010EEA22070EEF6E0E01020EBE6FF4
:1054D0000E01BC6BBD6B010E0E01BA6FBB6B0101FF
:1054E0008251E96EEA6AD890E936EA367E0EE926FC
:1054F000010EEA22EE52EFCFB9FE47EC20F0E90EA2
:10550000146ECA0E156E000E166E18C117F0186ACA
:10551000196A17AE02D018681968030E0C6E0D6A6E
:105520000E6A17C007F018C008F019C009F0B7ECF0
:1055300064F004C017F005C018F006C019F014504C
:105540001724F36E15501820F46E16501920F86EBB
:10555000F4CFF7FFF3CFF6FF0900F5CF72FE090095
:10556000F5CF73FE0800F5CF74FE01018251E96E9C
:10557000EA6AD890E936EA367E0EE926010EEA227A
:10558000EE52EFCF71FE83EC06F0080E0101185DBC
:1055900058E10E011A0E6F6F010E706F01018251FA
:1055A000E96EEA6AD890E936EA367E0EE926010EFF
:1055B000EA22EE52EFCF6EFE63EC06F00E017E0E95
:1055C000726FB20E736F000E746F01018251E96E3B
:1055D000EA6AD890E936EA367E0EE926010EEA221A
:1055E000EE52EFCF71FE83EC06F00E011A0E6F6FD4
:1055F000010E706F01018251E96EEA6AD890E936B6
:10560000EA367E0EE926010EEA22EE52EFCF6EFE5A
:1056100063EC06F00E019E0E726FCA0E736F000EE1
:10562000746F01018251E96EEA6AD890E936EA3670
:105630007E0EE926010EEA22EE52EFCF71FE83ECD8
:1056400006F0010118510FE018050DE08251E96ED6
:10565000EA6AD890E936EA367E0EE926010EEA2299
:105660000B0EEF6E13D20B0E195D74E00E016F0E70
:10567000726FB20E736F000E746F01018251E96E8A
:10568000EA6AD890E936EA367E0EE926010EEA2269
:10569000EE52EFCF71FE83EC06F0C50E146ECA0E0B
:1056A000156E000E166E19C117F0186A196A17AE3A
:1056B00002D018681968030E0C6E0D6A0E6A17C0C6
:1056C00007F018C008F019C009F0B7EC64F004C086
:1056D00017F005C018F006C019F014501724F36E27
:1056E00015501820F46E16501920F86EF4CFF7FFFD
:1056F000F3CFF6FF0900F5CF72FE0900F5CF73FE78
:105700000800F5CF74FE01018251E96EEA6AD89073
:10571000E936EA367E0EE926010EEA22EE52EFCF96
:1057200071FE83EC06F00E019E0E726FCA0E736F4F
:10573000000E746F01018251E96EEA6AD890E93671
:10574000EA367E0EE926010EEA22EE52EFCF71FE16
:1057500083EC06F014C1E8F05BEC43F0F350010B6E
:1057600017E00E01560E726FB20E736F000E746F5B
:1057700001018251E96EEA6AD890E936EA367E0E76
:10578000E926010EEA22EE52EFCF71FE83EC06F01D
:105790000E01460E726FB20E736F000E746F010130
:1057A0008251E96EEA6AD890E936EA367E0EE92639
:1057B000010EEA22EE52EFCF71FE83EC06F00101FA
:1057C00018050CE0E868041908E1E868051905E126
:1057D000E868061902E1E868071918E00E013D0EB5
:1057E000726FB20E736F000E746F01018251E96E19
:1057F000EA6AD890E936EA367E0EE926010EEA22F8
:10580000EE52EFCF71FE83EC06F02ED00E01340E77
:10581000726FB20E736F000E746F01018251E96EE8
:10582000EA6AD890E936EA367E0EE926010EEA22C7
:10583000EE52EFCF71FE83EC06F00E01300E726F68
:10584000B20E736F000E746F01018251E96EEA6A45
:10585000D890E936EA367E0EE926010EEA22EE52AB
:10586000EFCF71FE83EC06F00E019E0E726FCA0E32
:10587000736F000E746F01018251E96EEA6AD8906D
:10588000E936EA367E0EE926010EEA22EE52EFCF25
:1058900071FE83EC06F0010116510DE08251E96EB4
:1058A000EA6AD890E936EA367E0EE926010EEA2247
:1058B000080EEF6E24D00E019E0E726FCA0E736F2B
:1058C000000E746F01018251E96EEA6AD890E936E0
:1058D000EA367E0EE926010EEA22EE52EFCF71FE85
:1058E00083EC06F001018251E96EEA6AD890E9364C
:1058F000EA367E0EE926010EEA22090EEF6E0C0151
:10590000916BC4D00E019E0E726FCA0E736F000EA3
:10591000746F01018251E96EEA6AD890E936EA367D
:105920007E0EE926010EEA22EE52EFCF71FE83ECE5
:1059300006F001018251E96EEA6AD890E936EA364A
:105940007E0EE926010EEA22090EEF6E0C01916B24
:10595000A3D8000915E014C1D2F0EBEC3EF0010130
:1059600014698251E96EEA6AD890E936EA367E0E09
:10597000E926010EEA220B0EEF6E0C01010E916F6B
:1059800001018251E96EEA6AD890E936EA367E0E64
:10599000E926010EEA22EE52EFCF60FEF1EC03F0B1
:1059A000F3CF14F0F4CF15F01450151003E10C01EF
:1059B000010E916F6BD00C01010E916F01018251AC
:1059C000E96EEA6AD890E936EA367E0EE926010EDB
:1059D000EA22EE52EFCF60FEF1EC03F0F3CF14F0C9
:1059E000F4CF15F0100E145C000E155801E24ED0E5
:1059F00008C178F209C179F20AC17AF20BC17BF2CF
:105A000052EC22F001010C510D110E110F110FE19A
:105A10000C01916B01018251E96EEA6AD890E93676
:105A2000EA367E0EE926010EEA22090EEF6E2ED02E
:105A3000FF0E145D06E014C1D2F0EBEC3EF0010164
:105A40001469FF0E155D06E015C1D2F0EBEC3EF0D7
:105A5000010115698251E96EEA6AD890E936EA36A1
:105A60007E0EE926010EEA22EE52EFCF50FE2AEC1E
:105A700003F001018251E96EEA6AD890E936EA360C
:105A80007E0EE926010EEA22EF6A00D00C01915148
:105A900002E116EF24F0120001018251E96EEA6A78
:105AA000D890E936EA367E0EE926010EEA22EE5259
:105AB000EFCF60FEF1EC03F0F3CF02FCF4CF03FC78
