:020000040000FA
:0600000013EFDBF012001B
:020006001200E6
:06000800A0EFB4F01200AD
:02000E000004EC
:04001000A300000049
:02001400FFFFEC
:02001600FEFEEC
:0600180043EFB4F01200FA
:02001E001D00C3
:100020006DB70100710A0000010000006CB701000B
:10003000700A0000010000006AB70100650A0000B4
:1000400002000000FCB60100750500006E00000013
:10005000FBB601006F0A000001000000F2B60100CB
:10006000570F000009000000F0B60100630A00000D
:1000700002000000EFB601006E0A0000010000005F
:10008000E7B601003D0A000008000000E4B60100E8
:100090005A0A000003000000D1B60100C5090000A3
:1000A00013000000D0B601006D0A0000010000003E
:1000B000CCB60100530A000004000000CBB60100DA
:1000C0006C0A000001000000C9B60100610A0000CE
:1000D00002000000C1B60100350A0000080000005F
:1000E000C0B601006B0A000001000000BFB60100AD
:1000F0006A0A000001000000BEB60100690A0000A3
:1001000001000000BBB60100570A00000300000018
:1001100073B60100950700004800000069B60100B1
:100120002B0A00000A00000067B601005F0A000009
:100130000200000065B601005D0A00000200000038
:1001400016000000FE07000002000000B9B5010023
:10015000680A00000100000061B601004F0A0000BB
:100160000400000057B60100210A00000A00000048
:0C01700014000000FE000000020000006F
:04017C0003014551E5
:100180000A015D5D01E140D0FE0E5D5D1BE01C0ECD
:10019000E66EE66A290EE66E030EE66E5D511C0DF4
:1001A000F3CF00F0F4CF01F0000E0026010E012283
:1001B00000C0E6FF01C0E6FFC5ECC7F0026E060E08
:1001C000E15E025045C35DFAFE0E0301455D01E1AB
:1001D0001BD01C0EE66EE66A45511C0DF3CF00F0F5
:1001E000F4CF01F0000E0026010E012200C0E6FF50
:1001F00001C0E6FF290EE66E030EE66EC5ECC7F001
:10020000026E060EE15E025012000A015D515E5D53
:1002100001E14FD0FE0E5E5D32E0270E0301C56F97
:10022000C66B0301010EC46F0301020EC26F030E01
:10023000C36F0A015E511C0DF3CFE9FFF4CFEAFF53
:10024000000EE926010EEA221B0EE926000EEA2224
:10025000EFCFC1F35E511C0DF3CFE9FFF4CFEAFFFE
:10026000000EE926010EEA22EECFBFF3EFCFC0F376
:100270000301270EBF5F000EC05B80EC22F05DCA59
:100280005EFA270E0301C56FC66B44C3C4F329C3CE
:10029000C2F32AC3C3F30301C25F000EC35B0301B1
:1002A000010EC16F0301020EBF6F030EC06F80EC21
:1002B00022F012000D01C20E1D6F0F0E1E6F030102
:1002C000005101110FE1F9EC9AF01EC000F31FC0BC
:1002D00001F3FF0E03010017070E0117000E0027A0
:1002E000040E01233C0EE66EE66AE66A840EE66EB4
:1002F000080EE66E13ECC8F0006E050EE15E0050CD
:100300000D01156B146B1451006E016A090E005C2F
:10031000000E015801E326D114CD45F32FDF500E16
:10032000006EB50E016E010E026E14CD03F0046A6C
:10033000056A060E246E256A266A03C01FF004C0F3
:1003400020F005C021F075ECD9F01CC003F01DC0F1
:1003500004F01EC005F000500324F36E0150042089
:10036000F46E02500520F86EF4CFF7FFF3CFF6FFDE
:10037000F62A000EF722F8220800F5CF1CFD500ED9
:10038000006EB50E016E010E026E14CD03F0046A0C
:10039000056A060E246E256A266A03C01FF004C093
:1003A00020F005C021F075ECD9F01CC003F01DC091
:1003B00004F01EC005F000500324F36E0150042029
:1003C000F46E02500520F86EF4CFF7FFF3CFF6FF7E
:1003D000020EF626000EF722F8220900F5CF16FDD0
:1003E0000A00F5CF17FD500E006EB50E016E010E1E
:1003F000026E14CD03F0046A056A060E246E256AA7
:10040000266A03C01FF004C020F005C021F075EC7F
:10041000D9F01CC003F01DC004F01EC005F0005050
:100420000324F36E01500420F46E02500520F86E90
:10043000F4CFF7FFF3CFF6FF040EF626000EF722F7
:10044000F8220900F5CF18FD0A00F5CF19FD0D01BE
:100450001C5101E086D01DCD1AFD1ECD1BFD270EBF
:10046000036A1625026E17510322010E0226000EA2
:10047000032202501825006E03501921016E010E4F
:100480000026000E012200501D2701501E231DCD05
:1004900000F01ECD01F0026A036AD880FE0E0054FF
:1004A0001E0E0154000E0254000E035401E2EFD759
:1004B0001CCD44F3270E0D011A250301296F000EF0
:1004C0000D011B2103012A6F29510D01162503017E
:1004D0002B6F2A510D01172103012C6F010E2B27C1
:1004E000000E2C232B510D01182503012D6F2C51CB
:1004F0000D01192103012E6F0D0E3F6F409785DE10
:10050000500E006EB50E016E010E026E14CD03F09A
:10051000046A056A060E246E256A266A03C01FF067
:1005200004C020F005C021F075ECD9F01CC003F028
:100530001DC004F01EC005F000500324F36E0150EE
:100540000420F46E02500520F86EF4CFF7FFF3CFCD
:10055000F6FF0800F5CF28F397EC18F00D01142BE7
:10056000D2D6FFD712000D013B6B3B51006E016AE2
:10057000090E005C000E015801E3CAD03BCD45F3E3
:10058000FDDD0D0E03013F5D01E0BFD03EDE030146
:100590004D51285D01E0B9D0180E256F020E266F6F
:1005A0004A510CE14BC312F34CC313F34087040EC2
:1005B0003F6F4BC342F34CC343F3A4D0000E005D26
:1005C000040E015906E3880ED8800055130E01551C
:1005D00003E2006B040E016F00C312F301C313F3B7
:1005E000002B000E01234BC310F34CC311F3FDECA1
:1005F000D8F01EC037F31FC038F320C039F321C034
:100600003AF3030140894A51040A3DE0070A18E021
:10061000020A03E0030A01E075D046C318F347C39A
:1006200019F348C31AF349C31BF3020E4A5D02E0F3
:10063000000E01D0010E2495E8B024853F6B62D0F6
:1006400048514625026E49514721036E02504B2501
:10065000006E03504C21016E00501219426F015080
:100660001319436F46C318F347C319F348C31AF36A
:1006700049C31BF3276B260E026F036B046B056BDC
:10068000020E3F6F3FD046C3E9FF47C3EAFF020EA9
:10069000E926000EEA22EECF04F0EFCF05F046C3C4
:1006A000E9FF47C3EAFF0450EE24026E0550EE2036
:1006B000036E02504B25006E03504C21016E00501A
:1006C0001219426F01501319436F0A0EE66EE66A63
:1006D00046C3E6FF47C3E6FF180EE66E030EE66E5E
:1006E000C5ECC7F0006E060EE15E00500301050E7A
:1006F0003F6F0301010EAE6F0301020EAD6F4CECB4
:1007000012F000D00D013B5105D00D013B2B2DD730
:10071000FE0E00D0120003014E51006E016A090E58
:10072000005C000E015802E3010E0BD04EC345F3EE
:1007300025DD030141A903D04199010E02D0000E2D
:1007400000D0120003014F51006E016A090E005CD7
:10075000000E015802E3000E0BD04FC345F30EDD2F
:10076000070E03013F5D02E0000E01D0010E00D034
:10077000120003015051006E016A090E005C000E68
:10078000015801E363D050C345F3F8DC33C335F3BC
:1007900034C336F303013F51080A4EE0010A4CE02E
:1007A000050A4AE0020A45E0050A2DE00D0A15E0B7
:1007B000010A13E0070A0EE0020A0CE0010A0AE04F
:1007C000060A08E0040A01E037D0E3ECA6F097EC53
:1007D00018F03CD097EC18F039D00301010EAE6F41
:1007E0000301110EAD6F4CEC12F003011451151101
:1007F00001E106D00E512F1902E10F513019EDE140
:10080000080E3F6F23D00301010EAE6F0301110EDE
:10081000AD6F4CEC12F003011451151101E106D03B
:100820000E512F1902E10F513019EDE10C0E3F6FFF
:100830000DD00D0E3F6F0AD00301AE6B0301140EF5
:10084000AD6F4CEC12F097EC18F000D012000301E1
:100850005151006E016A090E005C000E015801E35F
:1008600008D051C345F38ADC0301409751C350F3CC
:1008700080DF120003015251006E016A090E005C14
:10088000000E015803E3F36AF46A22D052C345F321
:1008900075DCBBDC0A0EE66EE66A180EE66E030E29
:1008A000E66E530EE66E030EE66EC5ECC7F0006E04
:1008B000060EE15E005010C35DF311C35EF3530EEC
:1008C000006E030E016E00C0F3FF01C0F4FF00D004
:1008D000120003015F51006E016A090E005C000EF8
:1008E000015801E313D05FC345F348DC8EDC0301FC
:1008F0000E512F1902E10F51301908E00301010ECA
:10090000AE6F0301100EAD6F4CEC12F0120003013C
:100910006051006E016A090E005C000E015803E38D
:10092000F36AF46A3ED060C345F328DC3FC345FD5B
:10093000070E0D01455D06E00B0E455D03E0F36A11
:10094000F46A2FD0030131512F5D325130591BE32E
:1009500029512B5D026E2C512A55036E0206000EA2
:10096000035A31512F5D046E30513255056E0450DB
:10097000025C006E05500358016E00C0F3FF01C019
:10098000F4FF0FD00ED02F51315D006E3251305533
:10099000016E0006000E015A00C0F3FF01C0F4FF13
:1009A00000D0120003016151006E016A090E005C63
:1009B000000E015802E3000E74D061C345F3BEEC93
:1009C00000F061C360F3A3DFF3CF0FFDF4CF10FDA0
:1009D0000D010F51101103E1000E63D008D0010E7C
:1009E0000F1901E1105103E161C35FF372DF0301ED
:1009F0004151010B14E129512B5D006E2C512A55F8
:100A0000016ED890013200320D010F51005C10517F
:100A1000015805E361C35FF35CDF03014181010E0F
:100A20000301C56FC66B0301C46F0301620EC26F81
:100A3000030EC36F44C3C1F32FC3BFF330C3C0F36E
:100A400080EC22F003012F2B000E30232B512F5D61
:100A50002C51305904E329C32FF32AC330F30D017D
:100A6000010E0F1901E1105104E161C35FF331DFA1
:100A700016D0030140BB13D0408B10ECD9F01EC040
:100A800000F01FC001F0026A036A060E0026000E85
:100A900001220222032200C03BF301C03CF3010EFD
:100AA00000D012000D01AF6BB06B03016351006EFB
:100AB000016A090E005C000E015803E3F36AF46A50
:100AC000C2D063C345F3BEEC00F063C360F31FDF25
:100AD000F3CFADFDF4CFAEFD0D01AD51AE1106E18A
:100AE00063C35FF3F6DEF36AF46AADD0ADCDABFD60
:100AF000AECDACFDAD510301665D0D01AE510301FC
:100B0000675904E266C3ABFD67C3ACFD4151010BFD
:100B100014E129512B5D006E2C512A55016ED8909D
:100B2000013200320D01AD51005CAE51015805E3B8
:100B300063C35FF3CEDE0301418103012F510D0139
:100B4000AB25006E030130510D01AC21016E030194
:100B50002B51005C2C5101582DE32F512B5D0D01C1
:100B6000AF6F030130512C590D01B06FAFCDC5F3FC
:100B7000B0CDC6F30301010EC46F64C3C2F365C3F5
:100B8000C3F344C3C1F32FC3BFF330C3C0F380EC3E
:100B900022F00D01AF51030164270D01B051030193
:100BA00065230D01AF51AB5FB051AC5B29C32FF38F
:100BB0002AC330F3ABCDC5F3ACCDC6F30301010EB0
:100BC000C46F64C3C2F365C3C3F344C3C1F32FC38B
:100BD000BFF330C3C0F380EC22F00D01AB51030131
:100BE0002F270D01AC51030130230D01AD5103013D
:100BF000665D0D01AE510301675904E363C35FF302
:100C000068DE15D040BB13D0408B10ECD9F01EC06D
:100C100000F01FC001F0026A036A060E0026000EF3
:100C200001220222032200C03BF301C03CF30D016C
:100C3000AB51AF25006EAC51B021016E00C0F3FF87
:100C400001C0F4FF00D012000D012E6B2F6B0301C9
:100C50006851006E016A090E005C000E015803E342
:100C6000F36AF46AC5D068C345F3BEEC00F068C30C
:100C700060F34DDEF3CF2CFDF4CF2DFD0D012C5193
:100C80002D1106E168C35FF324DEF36AF46AB0D085
:100C900003014151010B14E129512B5D006E2C51D0
:100CA0002A55016ED890013200320D012C51005CA2
:100CB0002D51015805E368C35FF30BDE0301418149
:100CC0002CCD2AFD2DCD2BFD0D012C5103016C5D8A
:100CD0000D012D5103016D5904E26CC32AFD6DC352
:100CE0002BFD2F510D012A25006E030130510D01FE
:100CF0002B21016E03012B51005C2C51015830E374
:100D00002F512B5D0D012E6F030130512C590D0118
:100D10002F6F2ECDCDF32FCDCEF369C3CAF36AC3A7
:100D2000CBF36BC3CCF344C3C9F32FC3C7F330C3B6
:100D3000C8F3E4EC22F02ECD00F02FCD01F0026AD2
:100D400000500301692701506A2302506B230D01F3
:100D50002E512A5F2F512B5B29C32FF32AC330F367
:100D60002ACDCDF32BCDCEF369C3CAF36AC3CBF33F
:100D70006BC3CCF344C3C9F32FC3C7F330C3C8F369
:100D8000E4EC22F00D012A5103012F270D012B5114
:100D9000030130230D012C5103016C5D0D012D5118
:100DA00003016D5904E368C35FF393DD15D040BBC5
:100DB00013D0408B10ECD9F01EC000F01FC001F022
:100DC000026A036A060E0026000E01220222032296
:100DD00000C03BF301C03CF30D012A512E25006EEB
:100DE0002B512F21016E00C0F3FF01C0F4FF00D092
:100DF00012006FC3E6FF70C3E6FFBBECC8F0E5521C
:100E0000E552F3CF66F3F4CF67F36FC364F370C3B7
:100E100065F36EC363F346DE03016F51F324006E86
:100E20007051F420016E00C0F3FF01C0F4FF00D048
:100E3000120072C3E6FF73C3E6FF74C3E6FFC9EC9A
:100E4000C8F0E552E552E5521FC06CF320C06DF3C7
:100E500072C369F373C36AF374C36BF371C368F34A
:100E6000F3DEF3CF03F0F4CF04F0056A030172510F
:100E70000324006E73510420016E74510520026E2C
:100E800000C01FF001C020F002C021F000D012000D
:100E900003017551006E016A090E005C000E0158D5
:100EA00003E3F36AF46A25D075C345F3BEEC00F0A2
:100EB000030129512B5D0D01026F03012A512C59A9
:100EC0000D01036F010E025F000E035B75C360F33B
:100ED0001EDDF3CF00FDF4CF01FD0D010051025DD9
:100EE000006E03510155016E00C0F3FF01C0F4FF15
:100EF00000D0120076C377F318D8F3CF00F0F4CF08
:100F000001F00050011010E076C345F3BEEC00F094
:100F100033C335F334C336F30301010EAE6F03015F
:100F2000100EAD6F4CEC12F0120003017751006E01
:100F3000016A090E005C000E015803E3F36AF46ACB
:100F400031D077C345F3BEEC00F003013551335D7A
:100F5000365134590CE33551335D006E34513655FA
:100F6000016E00C0F3FF01C0F4FF1CD01BD035514F
:100F70002D5D026E2E513655036E010E0226000EB7
:100F800003222B51335D046E34512C55056E0250F3
:100F90000424006E03500520016E00C0F3FF01C061
:100FA000F4FF00D0120078C377F3BFDFF3CF39FD31
:100FB000F4CF3AFD0D0139513A1102E1000E48D04B
:100FC00078C345F3BEEC00F0030179517A1112E0C9
:100FD000010E0301C56FC66B44C3C4F335C3C2F32E
:100FE00036C3C3F30301C16F79C3BFF37AC3C0F340
:100FF00080EC22F00301352B000E362335512D5D98
:1010000036512E5904E22BC335F32CC336F30D01B0
:10101000010E391901E13A5103E10301418516D06E
:10102000030140BB13D0408B10ECD9F01EC000F080
:101030001FC001F0026A036A1E0E0026000E012284
:101040000222032200C03BF301C03CF3010E00D09A
:1010500012000D01636B646B7BC377F366DFF3CF24
:1010600061FDF4CF62FD0D016151621103E1F36A8C
:10107000F46AA1D07BC345F3BEEC00F003017E51BE
:101080000D01615D03017F510D01625904E261CDE3
:101090007EF362CD7FF3030135517E25006E36511C
:1010A0007F21016E00502D5D01502E5938E23551DF
:1010B0002D5D0D01636F030136512E590D01646FD3
:1010C000010E6327000E642303017C517D111BE098
:1010D00063CDC5F364CDC6F344C3C4F335C3C2F3D3
:1010E00036C3C3F30301010EC16F7CC3BFF37DC3DD
:1010F000C0F380EC22F00D01635103017C270D0148
:10110000645103017D230D01635103017E5F0D01D5
:10111000645103017F5B2BC335F32CC336F37C5141
:101120007D1113E07EC3C5F37FC3C6F344C3C4F38C
:1011300035C3C2F336C3C3F30301010EC16F7CC3D1
:10114000BFF37DC3C0F380EC22F003017E5135274D
:101150007F5136230D01635103017E270D01645138
:1011600003017F237E510D01615D006E6251030119
:101170007F55016E00507E5D01507F5902E341852D
:1011800015D040BB13D0408B10ECD9F01EC000F03E
:101190001FC001F0026A036A1E0E0026000E012223
:1011A0000222032200C03BF301C03CF37EC3F3FFE5
:1011B0007FC3F4FF00D0120003018051006E016A6A
:1011C000090E005C000E015803E3F36AF46A21D0B3
:1011D00080C345F3BEEC00F003012B512D5D0D01E2
:1011E0003B6F03012C512E590D013C6F80C377F3E7
:1011F0009CDEF3CF39FDF4CF3AFD0D0139513B5D53
:10120000006E3C513A55016E00C0F3FF01C0F4FF7F
:1012100000D0120003018151006E016A090E005CCA
:10122000000E015803E28451851103E1F36AF46A68
:10123000ABD081C345F3BEEC00F081C377F375DE1C
:10124000F3CF02FDF4CF03FD030186518425006E28
:1012500087518521016E0D010050025D0150035937
:101260000BE2030186510D01025D0301846F87517A
:101270000D0103590301856F0301355186250D01C9
:10128000006F0301365187210D01016F00510301E9
:101290002D5D0D01015103012E590FE22B512D5DE2
:1012A000006E2E512C55016E010E0026000E0122FB
:1012B00000500D01005F0150015B0D010051030161
:1012C0002D5D0D01046F015103012E590D01056FB4
:1012D000010E0427000E0523030184510D01045D56
:1012E000030185510D01055914E384C3C5F385C37A
:1012F000C6F344C3C4F300CDC2F301CDC3F303016D
:10130000010EC16F82C3BFF383C3C0F380EC22F030
:1013100036D004CDC5F305CDC6F344C3C4F300CD28
:10132000C2F301CDC3F30301010EC16F82C3BFF34A
:1013300083C3C0F380EC22F00D0104510301845DEE
:101340000301C56F0D010551030185590301C66FE6
:1013500044C3C4F32BC3C2F32CC3C3F30301010E74
:10136000C16F030182510D0104250301BF6F030109
:1013700083510D0105210301C06F80EC22F084C36D
:10138000F3FF85C3F4FF00D0120089C386F38AC33C
:1013900087F3010E0301846F856B0301060E826FD4
:1013A0000D0E836F88C381F335DF0D01065100D028
:1013B000120003018B51006E016A090E005C000EE1
:1013C000015803E28E518F1103E1F36AF46AB2D13E
:1013D0008BC345F3BEEC00F08BC377F3A6DD0301AE
:1013E0009051F35C0D013B6F03019151F4580D01D5
:1013F0003C6F03018E510D013B5D03018F510D01C7
:101400003C5903E2F368F46895D1030192519311BA
:101410000DE00D013B510301925D0D013C510301B3
:10142000935904E292C33BFD93C33CFD3551902593
:101430000D013F6F0301365191210D01406F3F5166
:1014400003012D5D0D01405103012E590FE22B5177
:101450002D5D006E2E512C55016E010E0026000EE2
:10146000012200500D013F5F0150405B3FCD39FD2F
:1014700040CD3AFD0D013F5103012D5D0D013D6F42
:10148000405103012E590D013E6F010E3D27000E04
:101490003E2390C33FFD91C340FD8EC341FD8FC3EA
:1014A00042FD8CC343FD8DC344FD03018CC3E9FFA2
:1014B0008DC3EAFF8C2B8D23EFCF46FD0D01486BCA
:1014C0000301945109E0610E0D01465D05E34651AB
:1014D0007A0802E3E00E46270D01200E476F4751C0
:1014E0003D5D000E3E5902E23DCD47FD47513B5D5B
:1014F000000E3C5902E23BCD47FD47510301C56F49
:10150000C66B44C3C4F339CDC2F33ACDC3F3030170
:10151000010EC16F0301490EBF6F0D0EC06F80EC4D
:1015200022F00D014751006E016A00503927015029
:101530003A234751006E016A00503D5F01503E5B07
:101540003D513E1106E12BC339FD2CC33AFD3D69E7
:101550003E690301945101E181D00D01456B475172
:10156000455D01E37AD04551EA6A490FE96E0D0EF7
:10157000EA22EFCF00F0610E005C13E34551EA6A06
:10158000490FE96E0D0EEA22EF507A080AE3E00EE9
:10159000006E4551EA6A490FE96E0D0EEA220050CD
:1015A000EF264551EA6A490FE96E0D0EEA22EF5027
:1015B000465D33E103018E07000E8F5B8E518F1164
:1015C00017E10D0141513F5D026E40514255036EDE
:1015D000455100010224006E000E0320016E010E31
:1015E0000026000E012200C0F3FF01C0F4FFA2D0CC
:1015F0008CC3E9FF8DC3EAFF8C2B000E8D23EFCF48
:1016000046FD0D01010E486F610E465D05E3465132
:101610007A0802E3E00E46271ED041CD8EF342CD7C
:101620008FF3485118E043CD8CF344CD8DF3030183
:101630008CC3E9FF8DC3EAFF8C2B000E8D23EFCF07
:1016400046FD610E0D01465D05E346517A0802E351
:10165000E00E4627486B452B82D751D00D01456BD4
:101660004751455D4CE24551EA6A490FE96E0D0E5E
:10167000EA22EF50465D2BE103018E07000E8F5BDF
:101680008E518F1117E10D0141513F5D026E4051A6
:101690004255036E455100010224006E000E0320E6
:1016A000016E010E0026000E012200C0F3FF01C0F2
:1016B000F4FF40D08CC3E9FF8DC3EAFF8C2B000EF2
:1016C0008D23EFCF46FD0D01010E486F16D041CDA1
:1016D0008EF342CD8FF3485110E043CD8CF344CDCF
:1016E0008DF303018CC3E9FF8DC3EAFF8C2B000E41
:1016F0008D23EFCF46FD0D01486B452BB1D74751E8
:10170000006E016A00503B5F01503C5B03018E514B
:101710000D013B5D03018F510D013C5903E2F3685C
:10172000F46808D04751006E016A00503F2701500D
:101730004023D2D6120003019551006E016A090EB2
:10174000005C000E015803E299519A1103E1F36A1B
:10175000F46ACDD195C345F3BEEC00F095C377F3A1
:1017600095EC07F003019B51F35C0D01026F03013F
:101770009C51F4580D01036F030199510D01025D55
:1017800003019A510D01035903E2F368F468AFD1E4
:1017900003019D519E110DE00D01025103019D5D5C
:1017A0000D01035103019E5904E29DC302FD9EC336
:1017B00003FD35519B250D01066F030136519C2118
:1017C0000D01076F065103012D5D0D010751030146
:1017D0002E590FE22B512D5D006E2E512C55016EAE
:1017E000010E0026000E012200500D01065F01507F
:1017F000075B06CD00FD07CD01FD0D01065103017C
:101800002D5D0D01046F075103012E590D01056F68
:10181000010E0427000E05239BC306FD9CC307FD94
:1018200099C308FD9AC309FD96C30AFD97C30BFD32
:1018300098C30CFD030196C3F6FF962B97C3F7FFE1
:10184000972398C3F8FF98230800F5CF0EFD0D01EC
:10185000106B03019F5109E0610E0D010E5D05E360
:101860000E517A0802E3E00E0E270D01200E0F6FD5
:101870000F51045D000E055902E204CD0FFD0F511A
:10188000025D000E035902E202CD0FFD0F5103016C
:10189000C56FC66B44C3C4F300CDC2F301CDC3F31F
:1018A0000301010EC16F0301110EBF6F0D0EC06F5A
:1018B00080EC22F00D010F51006E016A00500027EC
:1018C000015001230F51006E016A0050045F015066
:1018D000055B0451051106E12BC300FD2CC301FD7E
:1018E0000469056903019F5101E18BD00D010D6B66
:1018F0000F510D5D01E384D00D51EA6A110FE96EBD
:101900000D0EEA22EFCF00F0610E005C13E30D51E3
:10191000EA6A110FE96E0D0EEA22EF507A080AE327
:10192000E00E006E0D51EA6A110FE96E0D0EEA220B
:101930000050EF260D51EA6A110FE96E0D0EEA22F2
:10194000EF500E5D37E103019907000E9A5B995144
:101950009A1117E10D010851065D026E07510955F4
:10196000036E0D5100010224006E000E0320016E73
:10197000010E0026000E012200C0F3FF01C0F4FF9B
:10198000B6D096C3F6FF962B97C3F7FF000E9723AA
:1019900098C3F8FF98230800F5CF0EFD0D01010E46
:1019A000106F610E0E5D05E30E517A0802E3E00E42
:1019B0000E2724D008CD99F309CD9AF310511EE0DB
:1019C0000ACD96F30BCD97F30CCD98F3030196C394
:1019D000F6FF962B97C3F7FF000E972398C3F8FFE7
:1019E00098230800F5CF0EFD610E0D010E5D05E395
:1019F0000E517A0802E3E00E0E27106B0D2B78D7FC
:101A00005BD00D010D6B0F510D5D56E20D51EA6A71
:101A1000110FE96E0D0EEA22EF500E5D2FE103016A
:101A20009907000E9A5B99519A1117E10D0108511F
:101A3000065D026E07510955036E0D510001022427
:101A4000006E000E0320016E010E0026000E012222
:101A500000C0F3FF01C0F4FF4AD096C3F6FF962BF7
:101A600097C3F7FF000E972398C3F8FF9823080049
:101A7000F5CF0EFD0D01010E106F1CD008CD99F3AE
:101A800009CD9AF3105116E00ACD96F30BCD97F3DA
:101A90000CCD98F3030196C3F6FF962B97C3F7FF7F
:101AA000000E972398C3F8FF98230800F5CF0EFD8A
:101AB0000D01106B0D2BA7D70F51006E016A00505E
:101AC000025F0150035B030199510D01025D0301A7
:101AD0009A510D01035903E2F368F46808D00F51DD
:101AE000006E016A0050062701500723BED612007F
:101AF000A6C394F3A4C392F3A5C393F3A2C390F334
:101B0000A3C391F3010E03018E6F8F6B0301A10E2E
:101B10008C6F030E8D6FA0C38BF34BDC00D01200D3
:101B20000D01006B0051006E016A090E005C000E91
:101B3000015801E36CD300CD45F3BEEC00F00D017C
:101B4000036B016B026B03014151020B03E1415135
:101B5000040B0EE043EC7BF000090AE00D01100ECF
:101B6000036F03014151040B01E0010E0D01016FF0
:101B7000030140AB13D010ECD9F003011E503B5DC4
:101B8000006E1F503C59016E013404E20050000801
:101B9000000E015403E30D01100E036F030140AD6D
:101BA00013D010ECD9F003011E503D5D006E1F50A4
:101BB0003E59016E013404E200500008000E015449
:101BC00003E30D01100E036F0B0E03013F5D16E1E1
:101BD00010ECD9F003011E503D5D006E1F503E59C0
:101BE000016E013404E200500008000E015406E3C7
:101BF0000D01110E036F03010C0E3F6F040E3F5DCC
:101C000001E00AD10D01046B056B030E045D000EAB
:101C1000055901E301D104CDE9FF05CDEAFF140E1A
:101C2000EA02F3CFEAFFE902F3CFE9FFF450EA2634
:101C3000840EE926080EEA22100EE926000EEA229A
:101C4000EE50ED1001E1E8D004CDE9FF05CDEAFF4B
:101C5000140EEA02F3CFEAFFE902F3CFE9FFF450F2
:101C6000EA26840EE926080EEA22100EE926000E66
:101C7000EA22EECF00F0EFCF01F00301425100184D
:101C800002E14351011801E0C2D005EC01F00A0E57
:101C9000E66EE66A04CDE9FF05CDEAFF140EEA021E
:101CA000F3CFEAFFE902F3CFE9FFF450EA26840E0E
:101CB000E926080EEA22E9CF00F0EACF01F000C0E1
:101CC000E6FF01C0E6FF180EE66E030EE66EC5ECF9
:101CD000C7F0026E060EE15E025004CDE9FF05CDAD
:101CE000EAFF140EEA02F3CFEAFFE902F3CFE9FFBD
:101CF000F450EA26840EE926080EEA220A0EE926A6
:101D0000000EEA22EECF10F3EDCF11F304CDE9FF80
:101D100005CDEAFF140EEA02F3CFEAFFE902F3CFA2
:101D2000E9FFF450EA26840EE926080EEA220C0E9A
:101D3000E926000EEA22EECF0AF3EECF0BF3EECF48
:101D40000CF3EFCF0DF303010A2B0B230C230D2310
:101D50001A511825026E1B511921036E02501025CD
:101D6000006E03501121016E00501219426F015094
:101D70001319436F0D01120E036F0301060E3F6F1F
:101D800004CDC5F305CDC6F30301020ED880C557B7
:101D9000000EC657140EC603F3CFC6F3C503F3CF28
:101DA000C5F3F450C6270301010EC46F0D010425CD
:101DB0000301C26F000E0D0105210301C36F140E54
:101DC000C303F3CFC3F3C203F3CFC2F3F450C3276B
:101DD000840EC227080EC3230301010EC16F140E27
:101DE000206E216A04CD25F005CD26F057ECD9F000
:101DF0001EC0BFF31FC0C0F3840E0301BF27080E2F
:101E0000C02380EC22F00801BC6BBD6B05D00D0136
:101E1000042B000E0523F9D60D0103510AE00151F0
:101E200002E0000E01D0010E0301AE6F03CDADF351
:101E300033DB030140B94ED0070E3F5D4AE1FDECB4
:101E4000D8F0030137511E5C006E38511F58016EE7
:101E500039512058026E3A512158036E0001800E0C
:101E6000031401E0D1D103014051070B060815E12D
:101E70004051080B01E0010E0D01036F00CD50F33E
:101E8000B9EC03F000CD50F3B9EC03F00D010351B0
:101E900003E103010E0E3F6FB7D105EC01F0030122
:101EA000020EAE6F0301100EAD6FF6DAFDECD8F046
:101EB0001EC037F31FC038F320C039F321C03AF3F6
:101EC000E60E03013727F50E3823050E3923000EE1
:101ED0003A239AD1FDECD8F0030137511E5C006E15
:101EE00038511F58016E39512058026E3A5121580D
:101EF000036E0001800E031401E086D105EC01F0B1
:101F000003013F510C0A01E11ED1060A01E10CD187
:101F1000030A01E103D1010A01E1F1D00F0A01E155
:101F2000DFD00C0A01E1DCD00D0A01E1C4D0030AC4
:101F300001E1AED0060A01E17BD0010A68E0030AA4
:101F400020E0010A01E00ED1DAECA6F0000918E069
:101F50000301010E3F6F24A50BD00901776F18C351
:101F600074F919C375F91AC376F916ECA7F008D0FD
:101F70000901736F18C371F919C372F9F6ECA6F071
:101F8000F1D00901060E786F0D0E796F39ECA7F0CC
:101F900000093CE0E3ECA6F0000924E006CD18F3CC
:101FA00007CD19F308CD1AF309CD1BF30301020E77
:101FB0003F6F1A511825026E1B511921036E0250F2
:101FC0001025006E03501121016E00501219426F4E
:101FD00001501319436F276B260E026F036B046BBE
:101FE000056B14D0FDECD8F01EC037F31FC038F3DA
:101FF00020C039F321C03AF3E60E03013727F50E6E
:102000003823050E3923000E3A233F6BABD010EC7A
:10201000D9F01EC03BF31FC03CF30901180E596FE5
:10202000030E5A6F57ECBEF00301030E3F6F9AD0B8
:1020300009011C0E5D6F030E5E6F0901180E5B6FC8
:10204000030E5C6F9BECBEF000091AE110ECD9F0B6
:1020500003013B511E5C006E3C511F58016E005045
:10206000025D015003590BE2060E275D06E2272BA5
:10207000D8900237033704370537020E3F6F72D00E
:102080000D01020E036F016B0301050E3F6F6AD055
:102090000D01020E036F010E016F040E0301275D97
:1020A00009E3040E276F700E026F890E036F090E8D
:1020B000046F056B57D0020E275D06E20D01120E6C
:1020C000036F010E016F0BD040A706D00D01140E57
:1020D000036F010E026F03D00D01020E036F42D099
:1020E000050E275D06E20D01100E036F010E016F54
:1020F00005D0080E3F6F0D01110E036F33D0050E92
:10210000275D06E20D01110E036F010E016F05D070
:102110000D01140E036F010E026F24D00D01140E79
:10212000036F010E026F1ED0050E275D06E20D0142
:10213000100E036F010E016F05D00D01140E036F19
:10214000010E026F0FD0050E275D06E20D01110E84
:10215000036F010E016F05D00D01140E036F010E08
:10216000026F00D00D0103514AE0015142E003012A
:10217000272BD890023703370437053731510E5DCE
:102180000D01046F030132510F590D01056F030159
:1021900031510E5D32510F590BE229512B5D006E0A
:1021A0002C512A55016E00500D01042701500523C2
:1021B00004CD00F005CD01F0026A036A005003016E
:1021C000065F0150075B0250085B0350095B0D017D
:1021D0000451030114270D0105510301152331C3D7
:1021E0000EF332C30FF30301AE6B03CDADF354D93D
:1021F00006D00301010EAE6F03CDADF34DD90D0135
:10220000025102E097EC18F00D01002B8BD4046B07
:10221000056B030E045D000E055901E399D004CD52
:10222000E9FF05CDEAFF140EEA02F3CFEAFFE90267
:10223000F3CFE9FFF450EA26840EE926080EEA22DD
:10224000100EE926000EEA22EE50ED1001E180D0DA
:1022500004CDE9FF05CDEAFF140EEA02F3CFEAFF51
:10226000E902F3CFE9FFF450EA26840EE926080ECE
:10227000EA22120EE926000EEA22EECF02F0EFCF9C
:1022800003F002C0E6FF03C0E6FF10ECD9F0E55210
:10229000E7CF03F0E552E7CF02F002501E5C006E7C
:1022A00003501F58016EC90ED8800054010E01540E
:1022B0004AE204CDC5F305CDC6F30301020ED88072
:1022C000C557000EC657140EC603F3CFC6F3C50399
:1022D000F3CFC5F3F450C6270301010EC46F0D01FF
:1022E00004250301C26F000E0D0105210301C36F18
:1022F000140EC303F3CFC3F3C203F3CFC2F3F450FE
:10230000C327840EC227080EC3230301010EC16F29
:10231000140E206E216A04CD25F005CD26F057EC71
:10232000D9F01EC0BFF31FC0C0F3840E0301BF2746
:10233000080EC02380EC22F00801BC6BBD6B0D01C0
:102340000407000E055B0D01042B000E052361D769
:102350001200A7C3E9FFA8C3EAFFEECF14FDEECF3A
:1023600015FDEECF16FDEFCF17FDA9C3E9FFAAC3F8
:10237000EAFFEECF18FDEECF19FDEECF1AFDEFCF3D
:102380001BFD0D011C6B060E1D6FABC31EFDACC308
:102390001FFD1ECD75F71FCD76F7B7EC9FF0F3CF7D
:1023A0001EFDF4CF1FFD0C0E07017D6F7E6B070134
:1023B000140E7B6F0D0E7C6FDEEC9FF0F3CF20FDD3
:1023C000F4CF21FD0D01201F211FABC35FF8ACC36B
:1023D00060F8CFEC7EF0F3CF22FDF4CF23FD0D01AA
:1023E0002251201902E12351211904E051EC7BF024
:1023F000010E51D00901E66BE76BBAECCEF0140E7A
:102400000801696F6A6B0801000E676F0D0E686F37
:10241000ECEC80F00301000EB36F0D0EB46FBCEC5A
:1024200017F00D010C51F00BE842E842E842E84297
:10243000040DF350006E016A140E005E000E015A86
:1024400000C024FD2451006E016A00500301AB5D01
:10245000AB6F0150AC59AC6F140EAB5F000EAC5BB0
:10246000A7C3B1F3A8C3B2F30301000EAF6F0D0E03
:10247000B06FD8DA00090BE0ABC3B7F3ACC3B8F365
:102480000301000EB56F0D0EB66F60EC19F051EC44
:102490007BF0010E00D0120005EC01F00301ADA1AC
:1024A00002D04187AD91409B409D409F4193419513
:1024B000419143EC7BF0000901E1FBD7060E0301DB
:1024C000AD1504E00D016B6B6C6BFBD00E512F1939
:1024D00002E10F51301904E10D016B6B6C6BD9D027
:1024E0002F510E5D30510F593FE20E512F5D0D01FE
:1024F0006B6F03010F5130590D016C6F6B5103016C
:10250000145D0D016C510301155904E214C36BFDF8
:1025100015C36CFD0D016B510301255D0D016C515F
:102520000301265905E225C36BFD26C36CFD4185D9
:102530006BCDC5F36CCDC6F344C3C4F30EC3C2F375
:102540000FC3C3F30301C16B0301070EBF6F0A0E74
:10255000C06F80EC22F00D016B5103010E270D01BD
:102560006C5103010F2395D00E512B5D0D01696F46
:1025700003010F512C590D016A6F695103012F2579
:10258000006E0D016A5103013021016E2951005C7A
:102590000D016B6F03012A5101580D016C6F6B51D6
:1025A0000301145D0D016C510301155904E214C3BC
:1025B0006BFD15C36CFD0D016B510301255D0D0114
:1025C0006C510301265905E225C36BFD26C36CFD42
:1025D00041850D0169516B5D6A516C5904E26BCD07
:1025E00069FD6CCD6AFD69CDC5F36ACDC6F344C300
:1025F000C4F30EC3C2F30FC3C3F30301C16B0301E2
:10260000070EBF6F0A0EC06F80EC22F00D016951FA
:102610006B5D696F6A516C596A6F69516A1122E08A
:1026200069CDC5F36ACDC6F344C3C4F329C3C2F36D
:102630002AC3C3F30301C16B03010E512B5D006E6E
:102640002C510F55016E026A036A070E00260A0E0E
:102650000122000E0222032200C0BFF301C0C0F31A
:1026600080EC22F00D016B5103010E270D016C511E
:1026700003010F232B510E5D2C510F590AE32951F1
:102680002B5D006E2C512A55016E00500E5F0150DB
:102690000F5B030141A715D014510D016B1904E123
:1026A000030115510D016C190CE0030125510D01B9
:1026B0006B1904E1030126510D016C1902E00301BD
:1026C000AD810D016B516C1104E1030E0301AD15D9
:1026D00029E00D016B510301145F0D016C510301E1
:1026E000155B0D016B516C1102E00301AD87030115
:1026F000AEA107D0276B970E026F980E036F046B85
:10270000056BFDECD8F01E5003010225376F1F50FA
:102710000321386F20500421396F215005213A6F71
:10272000408938D0AEA31BD0400EE96E030EEA6E8E
:10273000EF50070BE82AF36EF350070BF36EF46EBD
:10274000F80EEF14F310EF6EF4500607000E075B5F
:10275000085B095B010E0D016B6F6C6B1BD040A910
:1027600019D0AEB108D0275106E02707D89005331D
:10277000043303330233FDECD8F01E50030102256D
:10278000376F1F500321386F20500421396F2150BB
:1027900005213A6F12C347FD13C348FD10C349FD1D
:1027A00011C34AFD06C34BFD07C34CFD08C34DFDD5
:1027B00009C34EFD0AC34FFD0BC350FD0CC351FDB1
:1027C0000DC352FD0D01549D549F53915393539546
:1027D0005397ADC354FD596B5A6B6B5103010627D8
:1027E0000D016C5103010723000E08230923ADA33B
:1027F00015D0ADB905D00D014F6B506B516B526BBD
:10280000030124A306D00D014B074C5B4D5B4E5BCF
:1028100005D0062B07230823092324830301ADB128
:1028200024813551335D3651345914E32B512D5DDC
:10283000006E2E512C55016E3551335D026E3451B0
:102840003655036E0D010250005C556F0350015860
:10285000566F0DD03351355D0D01556F0301345165
:1028600036590D01566F010E555F000E565B8AEC0E
:102870007BF0F3CF45FDF4CF46FD0D01400E455DE5
:10288000000E465903E2456B466B04D0400E455F8F
:10289000000E465B5551455D5651465904E245CD03
:1028A00055FD46CD56FD0301470EB36F0D0EB46FB7
:1028B00063DB140E0D016B27000E6C235389539BB1
:1028C000538D539F0301ADA326D0040E0D016B273A
:1028D000000E6C23020E5B6F040E5C6F020E5D6FC8
:1028E000180E5E6F010E006E530EE96E0D0EEA6E4D
:1028F000EF50F00BE842E842E842E84200240F0BB8
:10290000F36EF46EF346F346F346F3460F0EEF1400
:10291000F310EF6EF450BDC65FFDBEC660FDBFC6CE
:1029200061FDC0C662FD18C363FD19C364FD1AC30F
:1029300065FD1BC366FD0D01676B060E686F6BCDF1
:1029400069FD6CCD6AFD69CD75F76ACD76F7B7EC98
:102950009FF0F3CF69FDF4CF6AFD0C0E07017D6F88
:102960007E6B07015F0E7B6F0D0E7C6FDEEC9FF0C0
:10297000F3CF57FDF4CF58FD0D01571F581F080125
:10298000DF0E576F090E586F3AEC7EF06BCDE4F90D
:102990006CCDE5F90901060EE36F0901180EE16F30
:1029A000030EE26F46ECCEF0140E08016E6F6F6BF3
:1029B0000801470E6C6F0D0E6D6F3AEC81F003014C
:1029C000ADA30BD0040E08016E6F6F6B08015B0E98
:1029D0006C6F0D0E6D6F3AEC81F00801F30E596FBC
:1029E000090E5A6F5BEC7EF06BCD5FF86CCD60F832
:1029F000CFEC7EF0F3CF45FDF4CF46FD0801030E8A
:102A0000576F0A0E586F3AEC7EF0020E08016E6F97
:102A10006F6B0801450E6C6F0D0E6D6F3AEC81F017
:102A200008EF7DF0AFC3E9FFB0C3EAFF020EE9266D
:102A3000000EEA22EE50ED1002E1000E9CD20D01D4
:102A4000FE0E266FB1C3E9FFB2C3EAFF020EE9260C
:102A5000000EEA22EECF04F0EFCF05F0B1C3E9FF9C
:102A6000B2C3EAFF0450EE24026E0550EE20036E5E
:102A7000AFC3E9FFB0C3EAFF0250EE24006E03507B
:102A8000EE20016EAFC3E9FFB0C3EAFF020EE926F4
:102A9000000EEA220050EE18276F0150EE18286F42
:102AA000256B2551006E016A090E005C000E01586D
:102AB00067E225CD45F3BEEC00F00D0E03013F5D4E
:102AC00002E15BD024D0040E3F5D16E1AFC3E9FF05
:102AD000B0C3EAFF020EE926000EEA22EECF00F0B4
:102AE000EFCF01F00050421902E10150431902E119
:102AF00025CD26FD42D00BD00D01275103014219EF
:102B000004E10D0128510301431901E036D005EC21
:102B100001F0AFC3E9FFB0C3EAFF020EE926000EE1
:102B2000EA22EECF00F0EFCF01F0030112510018BE
:102B300002E11351011821E1AFC3E9FFB0C3EAFF7D
:102B4000EECF02F0EFCF03F01051021802E1115165
:102B5000031813E1B1C3E9FFB2C3EAFFEE5018193D
:102B600009E1EE50191906E1EE501A1903E1EE5091
:102B70001B1900E102E1010EFED10D01252B91D7B9
:102B8000FE0E265D39E026CD45F3BEEC00F005ECE7
:102B900001F0FE0E0D01265D2FE027CD42F328CD7A
:102BA00043F30A0EE66EE66AB1C3E6FFB2C3E6FF80
:102BB000180EE66E030EE66EC5ECC7F0006E060E4C
:102BC000E15E0050AFC3E9FFB0C3EAFFEECF10F300
:102BD000EDCF11F3AFC3E9FFB0C3EAFF020EE92660
:102BE000000EEA22EECF12F3EDCF13F329C30EF35A
:102BF0002AC30FF3010EBFD1AFC3E9FFB0C3EAFF91
:102C00000D0EE926000EEA22EF50020B02E1000E43
:102C1000B2D10801BC51BD1102E0000EACD10D01D2
:102C2000296B2A6B030E295D000E2A5901E3BED0E1
:102C300029CDE9FF2ACDEAFF140EEA02F3CFEAFF1D
:102C4000E902F3CFE9FFF450EA26840EE926080EE4
:102C5000EA22100EE926000EEA22EE50ED1001E104
:102C6000A5D029CDE9FF2ACDEAFF140EEA02F3CF61
:102C7000EAFFE902F3CFE9FFF450EA26840EE926E1
:102C8000080EEA22100EE926000EEA22EECF00F02E
:102C9000EFCF01F0AFC3E9FFB0C3EAFF020EE926B0
:102CA000000EEA22EECF02F0EFCF03F00250001840
:102CB00002E10350011801E074D029CDE9FF2ACDCB
:102CC000EAFF140EEA02F3CFEAFFE902F3CFE9FFCD
:102CD000F450EA26840EE926080EEA220A0EE926B6
:102CE000000EEA22EECF00F0EFCF01F0AFC3E9FF14
:102CF000B0C3EAFFEECF02F0EFCF03F002500018AE
:102D000002E10350011801E04CD0B1C3E9FFB2C3A6
:102D1000EAFFEECF00F0EECF01F0EECF02F0EFCF02
:102D200003F029CDE9FF2ACDEAFF140EEA02F3CF22
:102D3000EAFFE902F3CFE9FFF450EA26840EE92620
:102D4000080EEA22EE500001001809E1EE500118C9
:102D500006E1EE50021803E1EE50031800E101E035
:102D600020D010ECD9F01EC000F01FC001F029CD1A
:102D7000E9FF2ACDEAFF140EEA02F3CFEAFFE902E7
:102D8000F3CFE9FFF450EA26840EE926080EEA2282
:102D9000120EE926000EEA2200C0EEFF01C0EDFF90
:102DA000EAD00D01292B000E2A233CD7256B255193
:102DB000006E016A090E005C000E015801E3D9D0D3
:102DC00025CD45F3BEEC00F0030140A7CFD005ECC4
:102DD00001F0AFC3E9FFB0C3EAFF020EE926000E1F
:102DE000EA22EECF00F0EFCF01F0005003011219FC
:102DF00002E10150131901E0B9D00A0EE66EE66A4D
:102E0000B1C3E6FFB2C3E6FF29CDE9FF2ACDEAFF51
:102E1000140EEA02F3CFEAFFE902F3CFE9FFF45020
:102E2000EA26840EE926080EEA22E9CF00F0EACF6E
:102E300001F000C0E6FF01C0E6FFC5ECC7F0026E7E
:102E4000060EE15E0250AFC3E9FFB0C3EAFFEECF6A
:102E500000F0EFCF01F029CDE9FF2ACDEAFF140EF3
:102E6000EA02F3CFEAFFE902F3CFE9FFF450EA26E2
:102E7000840EE926080EEA220A0EE926000EEA224E
:102E800000C0EEFF01C0EDFFAFC3E9FFB0C3EAFF32
:102E9000040EE926000EEA22EECF00F0EECF01F09C
:102EA000EECF02F0EFCF03F029CDE9FF2ACDEAFF04
:102EB000140EEA02F3CFEAFFE902F3CFE9FFF45080
:102EC000EA26840EE926080EEA220C0EE926000EF8
:102ED000EA2200C0EEFF01C0EEFF02C0EEFF03C019
:102EE000EEFFAFC3E9FFB0C3EAFF020EE926000E12
:102EF000EA22EECF00F0EFCF01F029CDE9FF2ACD95
:102F0000EAFF140EEA02F3CFEAFFE902F3CFE9FF8A
:102F1000F450EA26840EE926080EEA22100EE9266D
:102F2000000EEA2200C0EEFF01C0EDFF10ECD9F068
:102F30001EC000F01FC001F029CDE9FF2ACDEAFF35
:102F4000140EEA02F3CFEAFFE902F3CFE9FFF450EF
:102F5000EA26840EE926080EEA22120EE926000E61
:102F6000EA2200C0EEFF01C0EDFF05D00D01252BC8
:102F70001ED7000E00D01200B3C3E9FFB4C3EAFFAE
:102F8000EECF75F7EDCF76F7B7EC9FF0F3CF00F00B
:102F9000F4CF01F0B3C3E9FFB4C3EAFF00C0EEFF12
:102FA00001C0EDFFB3C3E9FFB4C3EAFF020EE92697
:102FB000000EEA22EECF75F7EDCF76F7B7EC9FF073
:102FC000F3CF00F0F4CF01F0B3C3E9FFB4C3EAFFDD
:102FD000020E00C0EBFF030E01C0EBFFB3C3E9FF1D
:102FE000B4C3EAFF040EE926000EEA22EECF77F71B
:102FF000EECF78F7EECF79F7EFCF7AF7C7EC9FF007
:103000001EC000F01FC001F020C002F021C003F07C
:10301000B3C3E9FFB4C3EAFF040EE926000EEA22B7
:1030200000C0EEFF01C0EEFF02C0EEFF03C0EEFFE6
:10303000B3C3E9FFB4C3EAFF080EE926000EEA2293
:10304000EECF77F7EECF78F7EECF79F7EFCF7AF7CD
:10305000C7EC9FF01EC000F01FC001F020C002F0BE
:1030600021C003F0B3C3E9FFB4C3EAFF080EE926A9
:10307000000EEA2200C0EEFF01C0EEFF02C0EEFF2C
:1030800003C0EEFFB3C3E9FFB4C3EAFF0E0EE926A7
:10309000000EEA22EECF75F7EDCF76F7B7EC9FF092
:1030A000F3CF00F0F4CF01F0B3C3E9FFB4C3EAFFFC
:1030B0000E0E00C0EBFF0F0E01C0EBFFB3C3E9FF24
:1030C000B4C3EAFF100EE926000EEA22EECF75F730
:1030D000EDCF76F7B7EC9FF0F3CF00F0F4CF01F02F
:1030E000B3C3E9FFB4C3EAFF100E00C0EBFF110E3B
:1030F00001C0EBFFB3C3E9FFB4C3EAFF120EE92638
:10310000000EEA22EECF75F7EDCF76F7B7EC9FF021
:10311000F3CF00F0F4CF01F0B3C3E9FFB4C3EAFF8B
:10312000120E00C0EBFF130E01C0EBFF120005EC06
:1031300001F012C342F313C343F329C32FF32AC38D
:1031400030F329C331F32AC332F32BC333F32CC337
:1031500034F32BC335F32CC336F303014051080B72
:1031600002E0040E01D00D0E3F6F40914093409558
:103170004099409B409D409F41914193419541978B
:103180004189249124932497249929C30EF32AC3B7
:103190000FF3B6EC9AF0F3CF06F3F4CF07F3B6ECE7
:1031A0009AF0F3CF08F3F4CF09F3030122692369FE
:1031B000010E146F156B12000C0E0901E66FE76B20
:1031C000BAECCEF0D8EC80F00D01416FF00E411555
:1031D000E840E8403F0B006E016A140E005E000EEE
:1031E000015A00C041FD415105E1180EF36E020E77
:1031F000F46E65D0070E0801696F6A6B0801676B92
:10320000686BECEC80F00D0141514107000952E080
:10321000D8EC80F00D01426F425101E14BD04205E4
:1032200001E1F1D7020E425D2CE1030E415D01E2A6
:1032300041D0436B446BD8EC80F00D01426F040E1B
:10324000425D08E1D8EC80F00D01446FD8EC80F0CD
:103250000D01436F180E435D020E445901E22AD05E
:10326000B40ED8804355050E445506E2B40EF36EF5
:10327000050EF46E24D01DD043CDF3FF44CDF4FFF2
:103280001ED0020E415D01E215D0D8EC80F00D0198
:10329000426F4251415D01E20DD042510801696F18
:1032A0006A6B0801676B686BECEC80F00D014251B2
:1032B000415FA9D7180EF36E020EF46E00D0120013
:1032C000B5C3E9FFB6C3EAFF0D0EE926000EEA22F8
:1032D000EFCF33FDB5C3E9FFB6C3EAFF080EE92619
:1032E000000EEA22EECF34FDEECF35FDEECF36FDF7
:1032F000EFCF37FDB5C3E9FFB6C3EAFF040EE926F9
:10330000000EEA22EECF38FDEECF39FDEECF3AFDCA
:10331000EFCF3BFD030140914093409540B913D05E
:10332000FDECD8F01EC037F31FC038F320C039F3CE
:1033300021C03AF3E60E03013727F50E3823050EB8
:103340003923000E3A233F51050A48E0010A08E0FC
:10335000B7C33CFDB8C33DFD0D0133A1CFD0CBD0E9
:103360000D0133A503D0E3DE48EF21F033A912D0DD
:1033700034CD06F335CD07F336CD08F337CD09F359
:103380000301AE6B0301040EAD6F4CEC12F0CFDE07
:1033900048EF21F033A31FD038CD0AF339CD0BF31A
:1033A0003ACD0CF33BCD0DF303010A2B000E0B239A
:1033B0000C230D2301DFF3CF25F3F4CF26F3030114
:1033C000010EAE6F0301120EAD6F4CEC12F0030153
:1033D000060E3F6F01D0ABDE48EF21F00D0133A5A3
:1033E00002D048EF21F033A934D0340EE96E0D0E2F
:1033F000EA6EEE500301061909E1EE50071906E1E5
:10340000EE50081903E1EE50091900E122E006C36D
:1034100038FD07C339FD08C33AFD09C33BFD34CD70
:1034200006F335CD07F336CD08F337CD09F30301A5
:10343000010EAE6F0301040EAD6F4CEC12F038CDEF
:1034400006F339CD07F33ACD08F33BCD09F348EF46
:1034500021F00D0133A34DD038CD0AF339CD0BF354
:103460003ACD0CF33BCD0DF303010A2B000E0B23D9
:103470000C230D23B5C3E9FFB6C3EAFF0E0EE92600
:10348000000EEA22EECF14F3EDCF15F395DEF3CF65
:1034900025F3F4CF26F30D0133A920D00301010E4B
:1034A000AE6F0301100EAD6F4CEC12F00301070E6E
:1034B0003F6FFDECD8F01EC037F31FC038F320C0BB
:1034C00039F321C03AF3E60E03013727F50E38230E
:1034D000050E3923000E3A2340990BD00301010E4B
:1034E000AE6F0301120EAD6F4CEC12F00301060E2D
:1034F0003F6F48EF21F03C2B000E3D2333A303D058
:103500003C2B000E3D2303013551335D36513459B8
:1035100014E32B512D5D006E2E512C55016E35514B
:10352000335D026E34513655036E0D010250005C5E
:10353000316F03500158326F0DD03351355D0D019D
:10354000316F0301345136590D01326F010E315F75
:10355000000E325B0A0EE96E030EEA6EEE50385D25
:103560002B6FEE5039592C6FEE503A592D6FEE50AB
:103570003B592E6F2BCD2FFD2CCD30FD3E6B3C519A
:103580003D1101E17BD03151321101E176D0800E45
:103590002E1512E131CD00F032CD01F0026A036A3E
:1035A00000502B5D01502C5902502D5903502E59BB
:1035B00003E2010E3E6F3DD03CCD00F03DCD01F069
:1035C000026A036A2B0EE96E0D0EEA6EEE500026BB
:1035D000EE500122EE500222EE5003220334000E80
:1035E000031809E6D880000E0054000E0154000EA6
:1035F0000254000E03541DE23C51315D046E325101
:103600003D55056E066A076A05AE02D00668076872
:1036100007502E19E8AE02D02E3508D02B51045C8D
:103620002C5105582D5106582E51075802E3010E12
:103630003E6F31CD00F032CD01F0026A036A2E51A7
:103640000318E8AE02D0033408D000502B5D0150BF
:103650002C5902502D5903502E590FE22F513C2561
:10366000046E30513D21056E053404E2045000081B
:10367000000E055402E2010E3E6F1CD02B512C119E
:103680002D112E1103E1010E3E6F14D0800E2E1568
:1036900011E131CD00F032CD01F0026A036A005031
:1036A0002B5D01502C5902502D5903502E5902E226
:1036B000010E3E6F3E510CE133B508D00301010EFF
:1036C000AE6F0301100EAD6F4CEC12F048EF21F01D
:1036D000060E331503E02BDD48EF21F033B902D09D
:1036E00048EF21F003013F510C0A01E19CD20B0A83
:1036F00040E00F0A3EE0010A3CE0020A3AE0010A1B
:1037000038E00C0A01E0ADD2340EE96E0D0EEA6E1F
:10371000EE50061909E1EE50071906E1EE500819BE
:1037200003E1EE50091900E122E006C338FD07C3AA
:1037300039FD08C33AFD09C33BFD34CD06F335CD51
:1037400007F336CD08F337CD09F30301010EAE6F51
:103750000301040EAD6F4CEC12F038CD06F339CDF9
:1037600007F33ACD08F33BCD09F348EF21F0070EFC
:103770003F6F0E512F5D0D01296F03010F5130591D
:103780000D012A6F800E2A150CE0030129512B5DD3
:10379000006E2C512A55016E00500D012927015051
:1037A0002A2329CD00F02ACD01F0026A036A060E11
:1037B000E96E030EEA6EEE500024256FEE500120F4
:1037C000266FEE500220276FEE500320286F250E43
:1037D000E96E0D0EEA6EEE50345D256FEE503559F0
:1037E000266FEE503659276FEE503759286F28351F
:1037F000000E281909E6D880000E2555000E265522
:10380000000E2755000E28551DE203012451010B1F
:103810000AE0010E0D01251905E1265103E12751AA
:1038200001E128510AE00301AE6B0301100EAD6FF8
:103830004CEC12F048EF21F005D03407000E355B58
:10384000365B375B030131510E5D006E0F5132550F
:10385000016E026A036A01AE02D002680368060EB6
:10386000E96E030EEA6E0050EE5C0D01256F01500B
:10387000EE58266F0250EE58276F0350EE58286F0F
:10388000030131510E5D32510F5911E229512B5D67
:10389000006E2C512A55016E026A036A00500D0118
:1038A000255F0150265B0250275B0350285B250EE5
:1038B000E96E0D0EEA6EEE500D01345D256FEE508F
:1038C0003559266FEE503659276FEE503759286F0D
:1038D0002835000E281909E6D880000E2555000E5F
:1038E0002655000E2755000E285501E397D00301F9
:1038F00029512B5D006E2C512A55016E026A036A14
:103900000D012551005C26510158275102582851BC
:10391000035801E283D0030124972499419131C3D4
:1039200029FD32C32AFD0D012551030131270D0167
:103930002651030132230D01295103010E5D0D01B2
:103940002A5103010F591BE331510E5D32510F59BA
:1039500015E20E51315D006E32510F55016E0001BE
:103960000050030106270001015003010723000E48
:103970000823092331C30EF332C30FF32FD029518B
:103980002B5D006E2C512A55016E0E5100240D0145
:10399000296F03010F5101200D012A6F03013151DD
:1039A0000D01295D030132510D012A5917E22951F8
:1039B0000301315D006E32510D012A55016E000187
:1039C0000050030106270001015003010723000EE8
:1039D0000823092331C30EF332C30FF303012B5124
:1039E000315D2C5132590AE329512B5D006E2C5167
:1039F0002A55016E0050315F0150325B2B510E5D34
:103A00002C510F590AE329512B5D006E2C512A5578
:103A1000016E00500E5F01500F5B3FD003010E514D
:103A2000311902E10F51321938E024A735D024A909
:103A300032D031510E5D006E0F513255016E026A67
:103A4000036A01AE02D0026803680050065F0150AD
:103A5000075B0250085B0350095B31510E5D325128
:103A60000F5914E229512B5D006E2C512A55016E1D
:103A7000026A036A01AE02D0026803680050065F62
:103A80000150075B0250085B0350095B31C30EF322
:103A900032C30FF34185248924872F51311902E164
:103AA000305132192FE141B715D0FDECD8F01EC0CE
:103AB00037F31FC038F320C039F321C03AF3E60EC4
:103AC00003013727F50E3823050E3923000E3A235C
:103AD000409918D0060EE96E030EEA6EEE500D0105
:103AE000341909E1EE50351906E1EE50361903E1BB
:103AF000EE50371900E106E103012451010B02E009
:103B000040994197340EE96E0D0EEA6EEE500301B6
:103B1000065D006EEE500759016EEE500859026EB8
:103B2000EE500959036EB5C3E9FFB6C3EAFF0E0EA6
:103B3000E926000EEA220D010050EE5C3F6F0150B5
:103B4000EE58406F03011451151106E10D013F516C
:103B5000401102E0030141833FCD14F340CD15F342
:103B6000080E03013F5D2DE1060EE96E030EEA6EBD
:103B7000EE500D01341909E1EE50351906E1EE5011
:103B8000361903E1EE50371900E11AE1030124511F
:103B9000010B16E0FDECD8F01EC037F31FC038F360
:103BA00020C039F321C03AF3F30E03013727FA0E90
:103BB0003823020E3923000E3A234089090E3F6F45
:103BC00031D0090E3F5D16E10D0133B112D034CD75
:103BD00006F335CD07F336CD08F337CD09F30301EE
:103BE000AE6B0301140EAD6F4CEC12F097EC18F0B5
:103BF0004FD318D00A0E3F5D15E1060EE96E030E95
:103C0000EA6EEE500D01341909E1EE50351906E166
:103C1000EE50361903E1EE50371900E102E197EC5E
:103C200018F036D31FD006C300F007C301F008C355
:103C300002F009C303F0002A000E0122022203222F
:103C400000500D01341909E10150351906E1025007
:103C5000361903E10350371900E102E197EC18F03F
:103C600017D300D00D0133BB13D30B0E03013F5DFF
:103C700001E10ED30A0E3F5D01E10AD30C0E3F5D58
:103C800001E106D3B751B81101E14ED20D01303533
:103C900004E22F510008000E305501E2E8D0B5C310
:103CA000E9FFB6C3EAFF0C0EE926000EEA22EF5048
:103CB000F00BE842E842E842E842040DF350006E9F
:103CC000016A2F51005C0901E66F0D013051015866
:103CD0000901E76FBAECCEF00D012F510301B727B0
:103CE0000D0130510301B823B7510D01315D0301BE
:103CF000B8510D01325904E231CDB7F332CDB8F3EA
:103D00000301B7510A27B8510B23000E0C230D23D2
:103D10003351B725006E3451B821016E00502D5D2E
:103D200001502E5946E233512D5D0D01296F0301DB
:103D300034512E590D012A6F010E2927000E2A2316
:103D400029CDC5F32ACDC6F30301C46B0301C269B3
:103D5000C36944C3C1F333C3BFF334C3C0F3D0DB7F
:103D60000D0129510301B75D0301C56F0D012A51F2
:103D70000301B8590301C66F0301C46B0301C26993
:103D8000C36944C3C1F32BC3BFF32CC3C0F3B8DB77
:103D90000D0129510301B75D006EB8510D012A557F
:103DA000016E03012B510024336F2C510120346F1D
:103DB00015D0B7C3C5F3B8C3C6F30301C46B030181
:103DC000C269C36944C3C1F333C3BFF334C3C0F38F
:103DD00097DB0301B7513327B8513423221D01E18A
:103DE000231D44E0B751225FB851235B16512225B1
:103DF0000D01296F0301175123210D012A6F800E38
:103E00002A1504E003012269236930D00301233518
:103E100004E222510008000E235528E30D01295128
:103E200003010A270D012A5103010B23000E0C2365
:103E30000D230D012951030133270D012A510301DF
:103E4000342333512D5D34512E590EE22B512D5D0B
:103E5000006E2E512C55016E010E0026000E01221F
:103E60000050335F0150345B226923695DD13035E6
:103E700004E22F510008000E305501E355D1030133
:103E8000B7510D012F25006E0301B8510D013021EE
:103E9000016E0050315D0150325909E22F51315D00
:103EA0000301B76F0D01305132590301B86FB5C32B
:103EB000E9FFB6C3EAFF0C0EE926000EEA22EF5036
:103EC000F00BE842E842E842E842040DF3500901F1
:103ED000E66FE76BBAECCEF0030133510D012F25ED
:103EE000026E030134510D013021036E02500301B3
:103EF000B725006E0350B821016E00502D5D0150B2
:103F00002E596EE233512D5D006E2E513455016EE7
:103F1000010E0026000E01220D012F51005C296FB9
:103F2000305101582A6F800E2A1531E129CDC5F391
:103F30002ACDC6F30301C46B0301C269C36944C33C
:103F4000C1F3030133510D012F250301BF6F03019D
:103F500034510D0130210301C06FD2DA0D01295116
:103F60000301B75D0301C56F0D012A510301B85963
:103F70000301C66F0301C46B0301C269C36944C373
:103F8000C1F32BC3BFF32CC3C0F3BADA28D0B7C335
:103F9000C5F3B8C3C6F30301C46B0301C269C369A7
:103FA00044C3C1F3030133510D012F25006E0301FA
:103FB00034510D013021016E03012B512D5D026E34
:103FC0002E512C55036E010E0226000E0322030112
:103FD0000250005CBF6F03500158C06F91DA18D0D7
:103FE000B7C3C5F3B8C3C6F30301C46B0301C26909
:103FF000C36944C3C1F3030133510D012F250301EC
:10400000BF6F030134510D0130210301C06F78DA15
:104010000301221D01E1231D09E12FCD22F330CD43
:1040200023F3B7C316F3B8C317F37ED022510D01A3
:104030002F5D030123510D0130593DE22F51030142
:10404000B725006E0D0130510301B821016E2251D8
:104050001625026E23511721036E0050025C015099
:1040600003580FE30D012F510301B725046E0D0115
:1040700030510301B821056E2251045C23510558CB
:1040800005E2B7C316F3B8C317F310D022511625B3
:10409000006E23511721016E0D012F51005C0301A9
:1040A000166F0D01305101580301176F2FCD22F308
:1040B00030CD23F339D02F510301B725006E0D0108
:1040C00030510301B821016E22511625026E235191
:1040D0001721036E0050025C0150035825E2225163
:1040E0001625006E23511721016E0D012F51005C22
:1040F0003051015819E32F510301B725046E0D010A
:1041000030510301B821056E2251045C026E235127
:104110000558036E1651025C006E17510358016E6C
:1041200000501627015017230D013C513D1124E08A
:10413000070E03013F5D04E033C335F334C336F3A8
:1041400040AF0BD00301010EAE6F0301100EAD6F37
:104150004CEC12F005EC01F00FD0408F40BD0CD0BC
:10416000408D10ECD9F01EC03DF31FC03EF30F0E82
:1041700003013D27000E3E230D0133A189D00AC360
:1041800000F00BC301F00CC302F00DC303F0002AD2
:10419000000E0122022203223CCD04F03DCD05F0A9
:1041A000066A076A380EE96E0D0EEA6EEE500426B6
:1041B000EE500522EE500622EE5007220050041861
:1041C00009E10150051806E10250061803E1035009
:1041D000071800E15DE103010A2B000E0B230C23FD
:1041E0000D233F51090A41E0010A1EE00F0A0EE0CB
:1041F000010A01E044D00C0E3F6F0301010EAE6FC7
:104200000301110EAD6F4CEC12F042D00B0E3F6F5C
:1042100010ECD9F01EC03DF31FC03EF31E0E03018B
:104220003D27000E3E232CD0060EE96E030EEA6EEB
:10423000EE500D01341909E1EE50351906E1EE504A
:10424000361903E1EE50371900E10BE10301AE6BC3
:104250000301100EAD6F4CEC12F097EC18F018D073
:1042600003D003010A0E3F6F0BD00301AE6B0301B5
:10427000100EAD6F4CEC12F097EC18F009D000D096
:104280000301010EAE6F0301100EAD6F4CEC12F086
:1042900012000301B951006E016A090E005C000EA4
:1042A000015802E3000E2BD1B9C345F3BEEC00F078
:1042B0000301BA51BB1103E1010EBA6FBB6B295167
:1042C0002D5D0D01006F03012A512E590D01016F63
:1042D000010E005F000E015B0301BA51BC25006EA8
:1042E000BB51BD21016E0D010050005D015001590F
:1042F00002E2000E04D105EC01F0030E0301BE152D
:1043000002E1030EBE13BCC304FDBDC305FDBA51DB
:10431000BC25006EBB51BD21016E00500D01005F38
:104320000150015B0301BEA314D0BEA10DD000CD8E
:1043300000F001CD01F0D8900132003200500D01A3
:1043400004270150052305D00D0100510427015118
:104350000523030129510D010425006F03012A5192
:104360000D010521016F010E0027000E012333C34B
:1043700002FD34C303FD0301221D01E1231D22E0E0
:1043800022511625006E23511721016E00500D0198
:10439000022701500323025103012D5D0D0103513A
:1043A00003012E590FE22B512D5D006E2E512C551D
:1043B000016E010E0026000E012200500D01025F69
:1043C0000150035B0D0102510301355D0D010351E5
:1043D0000301365917E20D0100510301355D0D014E
:1043E0000151030136590DE2BEA503D0000E87D05E
:1043F00008D000CD35F301CD36F300CD33F301CD38
:1044000034F326D035510D01025D030136510D0103
:10441000035916E2005103012B5D0D010151030107
:104420002C590DE2BEA503D0000E69D008D000CDF6
:1044300035F301CD36F300CD33F301CD34F308D09D
:1044400000CD35F301CD36F300CD33F301CD34F398
:10445000030135510D01025D030136510D01035970
:1044600030E2040E0301BE152CE02B510D01025D5C
:104470000301C56F03012C510D0103590301C66FE0
:1044800044C3C4F32BC3C2F32CC3C3F344C3C1F36B
:1044900000CDBFF301CDC0F333D803013551335DF7
:1044A000365134590EE20D01005103012B5D006EAF
:1044B0002C510D010155016E00500301335F015075
:1044C000345B00CD2BF301CD2CF329C30EF32AC3AB
:1044D0000FF329C331F32AC332F329C32FF32AC3BD
:1044E00030F3070E03013F5D08E10301010EAE6FDB
:1044F0000301100EAD6F4CEC12F0010E00D0120053
:104500000301C45131E0010A01E05DD0C15116E060
:10451000010A01E028D0C5C3E6FFC6C3E6FFC2C357
:10452000E6FFC3C3E6FFBFC3E6FFC0C3E6FFC5ECBB
:10453000C7F0006E060EE15E005015D0BF1D01E110
:10454000C01D06E0BFC357F8C0C358F83AEC7EF070
:10455000C5C36EF8C6C36FF8C2C36CF8C3C36DF8A9
:104560003AEC81F000D02FD0C15118E0010A01E0EF
:1045700029D0C21D01E1C31D06E0C2C359F8C3C35F
:104580005AF85BEC7EF0C5C369F8C6C36AF8BFC3CE
:1045900067F8C0C368F8ECEC80F014D0C5C365F8C8
:1045A000C6C366F8C2C363F8C3C364F8BFC361F887
:1045B000C0C362F86BEC7FF0CBEC80F0000901E146
:1045C000FBD700D000D012000301C95118E0010A46
:1045D00001E069D0CDC3E6FFCEC3E6FFCAC3E6FF64
:1045E000CBC3E6FFCCC3E6FFC7C3E6FFC8C3E6FF05
:1045F000F0ECC7F0006E070EE15E005054D0C71D0E
:1046000001E1C81D06E0C7C357F8C8C358F83AEC23
:104610007EF0100E0D01286F296B0301CD51CE11D4
:1046200041E00D0128510301CD5D0D012951030128
:10463000CE5904E2CDC328FDCEC329FD28CDE6FF27
:1046400029CDE6FFCAC3E6FFCBC3E6FFCCC3E6FF36
:10465000180EE66E0D0EE66EF0ECC7F0006E070E5B
:10466000E15E005028CD6EF829CD6FF80801180ED4
:104670006C6F0D0E6D6F3AEC81F028CD00F029CDF6
:1046800001F0026A00500301CA270150CB230250F7
:10469000CC230D0128510301CD5F0D0129510301E8
:0846A000CE5BBBD700D0120075
:0846A8004A0E0701DD1905E1CE
:1046B000DE5103E1DF5101E1E05101E181D3490E17
:1046C000DD1905E1DE5103E1DF5101E1E05101E1D6
:1046D00074D3480EDD1905E1DE5103E1DF5101E13C
:1046E000E05101E167D3470EDD1905E1DE5103E139
:1046F000DF5101E1E05101E156D3460EDD1905E13C
:10470000DE5103E1DF5101E1E05101E145D3450E06
:10471000DD1905E1DE5103E1DF5101E1E05101E185
:1047200035D3440EDD1905E1DE5103E1DF5101E12E
:10473000E05101E124D3430EDD1905E1DE5103E12F
:10474000DF5101E1E05101E113D3420EDD1905E132
:10475000DE5103E1DF5101E1E05101E103D3330E0A
:10476000DD1905E1DE5103E1DF5101E1E05101E135
:10477000EFD2310EDD1905E1DE5103E1DF5101E138
:10478000E05101E1DED2300EDD1905E1DE5103E139
:10479000DF5101E1E05101E1CDD22F0EDD1905E13C
:1047A000DE5103E1DF5101E1E05101E1BDD22E0E06
:1047B000DD1905E1DE5103E1DF5101E1E05101E1E5
:1047C000B0D22D0EDD1905E1DE5103E1DF5101E12B
:1047D000E05101E1A3D22C0EDD1905E1DE5103E128
:1047E000DF5101E1E05101E196D22B0EDD1905E127
:1047F000DE5103E1DF5101E1E05101E189D22A0EEE
:10480000DD1905E1DE5103E1DF5101E1E05101E194
:104810007CD2290EDD1905E1DE5103E1DF5101E112
:10482000E05101E16FD2280EDD1905E1DE5103E10F
:10483000DF5101E1E05101E162D2270EDD1905E10E
:10484000DE5103E1DF5101E1E05101E155D2260ED5
:10485000DD1905E1DE5103E1DF5101E1E05101E144
:1048600048D2250EDD1905E1DE5103E1DF5101E1FA
:10487000E05101E13BD2240EDD1905E1DE5103E1F7
:10488000DF5101E1E05101E12ED2230EDD1905E1F6
:10489000DE5103E1DF5101E1E05101E121D2220EBD
:1048A000DD1905E1DE5103E1DF5101E1E05101E1F4
:1048B00014D2210EDD1905E1DE5103E1DF5101E1E2
:1048C000E05101E107D2200EDD1905E1DE5103E1DF
:1048D000DF5101E1E05101E1FAD11F0EDD1905E1DF
:1048E000DE5103E1DF5101E1E05101E1EDD11E0EA6
:1048F000DD1905E1DE5103E1DF5101E1E05101E1A4
:10490000E0D11D0EDD1905E1DE5103E1DF5101E1CA
:10491000E05101E1D3D11C0EDD1905E1DE5103E1C7
:10492000DF5101E1E05101E1C6D11B0EDD1905E1C6
:10493000DE5103E1DF5101E1E05101E1B5D11A0E91
:10494000DD1905E1DE5103E1DF5101E1E05101E153
:10495000A4D1190EDD1905E1DE5103E1DF5101E1BA
:10496000E05101E193D1180EDD1905E1DE5103E1BB
:10497000DF5101E1E05101E183D1170EDD1905E1BD
:10498000DE5103E1DF5101E1E05101E173D1160E87
:10499000DD1905E1DE5103E1DF5101E1E05101E103
:1049A00066D1150EDD1905E1DE5103E1DF5101E1AC
:1049B000E05101E152D1140EDD1905E1DE5103E1B0
:1049C000DF5101E1E05101E13ED1130EDD1905E1B6
:1049D000DE5103E1DF5101E1E05101E12AD1120E84
:1049E000DD1905E1DE5103E1DF5101E1E05101E1B3
:1049F00015D1110EDD1905E1DE5103E1DF5101E1B1
:104A0000E05101E101D1100EDD1905E1DE5103E1B4
:104A1000DF5101E1E05101E1ECD00F0EDD1905E1BC
:104A2000DE5103E1DF5101E1E05101E1D8D00E0E8A
:104A3000DD1905E1DE5103E1DF5101E1E05101E162
:104A4000C3D00D0EDD1905E1DE5103E1DF5101E1B7
:104A5000E05101E1B6D00C0EDD1905E1DE5103E1B4
:104A6000DF5101E1E05101E1A5D00B0EDD1905E1B7
:104A7000DE5103E1DF5101E1E05101E194D00A0E82
:104A8000DD1905E1DE5103E1DF5101E1E05101E112
:104A900083D0090EDD1905E1DE5103E1DF5101E1AB
:104AA000E05173E0080EDD1905E1DE5103E1DF514D
:104AB00001E1E05163E0070EDD1905E1DE5103E19C
:104AC000DF5101E1E05153E0060EDD1905E1DE5151
:104AD00003E1DF5101E1E05143E0050EDD1905E19D
:104AE000DE5103E1DF5101E1E05137E0040EDD1951
:104AF00005E1DE5103E1DF5101E1E0512CE0030E5D
:104B0000DD1905E1DE5103E1DF5101E1E05120E073
:104B1000020EDD1905E1DE5103E1DF5101E1E05153
:104B20000DE0010EDD1905E1DE5103E1DF5101E188
:104B3000E05101E048D114EC4AF060D10701AC0E1D
:104B4000FB6F110EFC6F010EFD6F66EC3DF056D150
:104B500057EC4AF053D154D951D1FFEC47F04ED124
:104B6000070E0501656F666BBFEC48F047D1060E76
:104B70000501656F666BBFEC48F040D1050E05017D
:104B8000656F666BBFEC48F039D1040E0501656FA7
:104B9000666BBFEC48F032D1030E0501656F666BA2
:104BA000BFEC48F02BD1020E0501656F666BBFECC0
:104BB00048F024D1010E0501656F666BBFEC48F02B
:104BC0001DD1E7EC49F01AD1010E0501696F6A6B3E
:104BD000040E0501676F686B3AEC49F00FD10501CF
:104BE000696B6A6B040E0501676F686B3AEC49F0FC
:104BF00005D1010E0501696F6A6B030E0501676F30
:104C0000686B3AEC49F0FAD00501696B6A6B030EE8
:104C10000501676F686B3AEC49F0F0D0010E0501B1
:104C2000696F6A6B020E0501676F686B3AEC49F0B9
:104C3000E5D00501696B6A6B020E0501676F686B51
:104C40003AEC49F0DBD0010E0501696F6A6B050192
:104C5000676F686B3AEC49F0D1D00501696B6A6BFC
:104C6000010E0501676F686B3AEC49F0C7D059EC4B
:104C700048F0C4D00501656B666BBFEC48F0BED050
:104C80000501636B646B70EC48F0B8D0010E050150
:104C9000636F646B70EC48F0B1D0020E0501636F76
:104CA000646B70EC48F0AAD0030E0501636F646B6F
:104CB00070EC48F0A3D0C0EC49F0A0D09DEC4AF0D5
:104CC0009DD021EC4DF09AD09FEC4CF097D0B6ECF3
:104CD0004CF094D09BEC4CF091D09CEC4CF08ED0EE
:104CE0009DEC4CF08BD056EC4DF088D004EC4CF0A1
:104CF00085D09AEC4BF082D0B1EC4BF07FD0CDEC6C
:104D00004BF07CD0D8EC4BF079D0E3EC4BF076D084
:104D1000EEEC4BF073D0F9EC4BF070D084EC4CF02F
:104D20006DD086EC4CF06AD00501736B746B9EEC11
:104D30004CF064D0010E0501736F746B9EEC4CF067
:104D40005DD0020E0501736F746B9EEC4CF056D073
:104D50000701A10EFB6F110EFC6F010EFD6F66ECDB
:104D60003DF04CD005016F6B706B82EC4CF046D07F
:104D7000010E05016F6F706B82EC4CF03FD0020E9C
:104D800005016F6F706B82EC4CF038D00501716BD0
:104D9000726B83EC4CF032D0010E0501716F726BB7
:104DA00083EC4CF02BD0020E0501716F726B83EC1B
:104DB0004CF024D0F3EC4CF021D00AEC4DF01ED096
:104DC0009BEC4AF01BD0040E03016C6F6D6B03016A
:104DD0009C0E696F110E6A6F010E6B6F0401835197
:104DE000E96EEA6AD890E936EA367F0EE926040EC3
:104DF000EA22EE52EFCF68F324EC06F000D0120066
:104E000003017E0E626F04018351E96EEA6AD89055
:104E1000E936EA367F0EE926040EEA22EE52EFCF9B
:104E200061F3D2EC04F000D012000401836B020E97
:104E3000835D5AE28351E96EEA6AD890E936EA3630
:104E40007F0EE926040EEA22EF6A0301080E4D6F79
:104E5000500E03014B6F4C6B03014A6B0301466B11
:104E6000476B486B496BB3EC02F0E66E040183516B
:104E7000E96EEA6AD890E936EA367F0EE926040E32
:104E8000EA22EE52E552E750EF6E1469156983513C
:104E90007F0DF3CF00F0F4CF01F0026A036AFE0E3B
:104EA00000261E0E0122000E0222032200C057F827
:104EB00001C058F83AEC7EF0F3CF00FDF4CF01FDCD
:104EC0007F0E08016E6F6F6B0801000E6C6F040E91
:104ED0006D6F3AEC81F000CD57F801CD58F83AECFF
:104EE0007EF00401832BA3D7836B12000D01866B28
:104EF000020E865D01E385D08651E96EEA6AD8909C
:104F0000E936EA367F0EE926040EEA22EE52EF5029
:104F1000FE0801E173D08651E96EEA6AD890E9365D
:104F2000EA367F0EE926040EEA22EE52EFCF4EF368
:104F30008BEC03F000093BE086CDE1F763D8040178
:104F40008351E96EEA6AD890E936EA367F0EE9269F
:104F5000040EEA22EF6AFF0E145D06E014C4D6F0D8
:104F6000B0EC5CF004011469FF0E155D06E015C499
:104F7000D6F0B0EC5CF0040115690301040EBE6FBD
:104F80000301BC6BBD6B010E0301BA6FBB6B040167
:104F90008351E96EEA6AD890E936EA367F0EE9264F
:104FA000040EEA22EE52EFCFB9F349EC21F00D01E5
:104FB0008651E96EEA6AD890E936EA367F0EE9262C
:104FC000040EEA22EF5016E18651E96EEA6AD890A3
:104FD000E936EA367F0EE926040EEA22EE52EFCFDA
:104FE00077F395EC07F0F3CF00F0F4CF01F0005029
:104FF000011004E086CDE1F705D863D80D01862BBA
:1050000077D71200040183510701E15D01E158D017
:10501000040183517F0DF3CF00F0F4CF01F0026A59
:10502000036AFE0E00261E0E0122000E022203223B
:1050300000C057F801C058F83AEC7EF0F3CF00FDFD
:10504000F4CF01FD7F0E08016E6F6F6B0801000E3B
:105050006C6F040E6D6F3AEC81F000CD57F801CD06
:1050600058F83AEC7EF00701E1517F0DF3CF00F0E4
:10507000F4CF01F0026A036AFE0E00261E0E012222
:10508000000E0222032200C059F801C05AF85BEC5E
:105090007EF0F3CF00FDF4CF01FD7F0E0801696FB4
:1050A0006A6B0801000E676F040E686FECEC80F00D
:1050B00000CD59F801CD5AF85BEC7EF0E1C783F4DE
:1050C00012000D01010E736F04018351E96EEA6A4B
:1050D000D890E936EA367F0EE926040EEA22EF5030
:1050E0000B0A02E177EF34F0010A02E13AEF34F003
:1050F000030A02E105EF34F0010A02E182EF32F027
:105100000F0A02E165EF30F0010A02E12EEF30F004
:10511000030A02E1F2EF2EF0010A02E1DFEF2EF0C6
:10512000070A02E186EF2EF0010A02E1B8EF2CF047
:10513000030A67E0010A02E0A5EF34F08351E96E4B
:10514000EA6AD890E936EA367F0EE926040EEA22AA
:10515000EE52EFCF77F395EC07F0F3CF6DFDF4CF80
:105160006EFD0D016D516E114AE004011A0E106FB3
:10517000040E116F8351E96EEA6AD890E936EA3677
:105180007F0EE926040EEA22010EEF6E1769166BF8
:10519000FDECD8F01EC008F41FC009F420C00AF4CA
:1051A00021C00BF48B0E04010827D20E09231A0E1E
:1051B0000A23000E0B230C690D690E690F69006B41
:1051C000016B026B036B7E6B0301050EBE6F030167
:1051D000BC6BBD6B010E0301BA6FBB6B0401835145
:1051E000E96EEA6AD890E936EA367F0EE926040EBF
:1051F000EA22EE52EFCFB9F349EC21F002D0A5EF4D
:1052000034F00301A66B0301A46BA56B0301A26B31
:10521000A36B03010A0EA16F04018351E96EEA6AD0
:10522000D890E936EA367F0EE926040EEA22EE52DD
:10523000EFCFA0F378EC0DF0F3CF00F0F4CF01F056
:105240000001001C01E1011C65E104018351E96ECC
:10525000EA6AD890E936EA367F0EE926040EEA2299
:10526000EE52EFCF80F3DCEC08F0F3CF00F0F4CF98
:1052700001F00050011011E10401050E186F835177
:10528000E96EEA6AD890E936EA367F0EE926040E1E
:10529000EA22070EEF6E0D01736BFDECD8F00401EE
:1052A00008511E5C006E09511F58016E0A512058AA
:1052B000026E0B512158036E0334000E031809E6E9
:1052C000D880000E0054000E0154000E0254000E4F
:1052D00003541EE28351E96EEA6AD890E936EA3651
:1052E0007F0EE926040EEA22EE52EFCF50F3B9EC1E
:1052F00003F004018351E96EEA6AD890E936EA3690
:105300007F0EE926040EEA220B0EEF6E0D01736B81
:10531000A5EF34F0FDECD8F01EC008F41FC009F46E
:1053200020C00AF421C00BF48B0E04010827D20E12
:1053300009231A0E0A23000E0B230301A66B030197
:10534000A46BA56B0301A26BA36B0301200EA16FDD
:1053500004018351E96EEA6AD890E936EA367F0E95
:10536000E926040EEA22EE52EFCFA0F378EC0DF01E
:10537000F3CF6DFDF4CF6EFD0D01050ED8806D5598
:10538000000E6E5503E2050E6D6F6E6B010E6D25FE
:1053900003017E6F000E0D016E2103017F6F03017B
:1053A0001A0E7C6F040E7D6F04018351E96EEA6A68
:1053B000D890E936EA367F0EE926040EEA22EE524C
:1053C000EFCF7BF329EC08F0030EE66EE66ACA0E17
:1053D000E66E0A0EE66E010EE66E1A0EE66E040E1C
:1053E000E66EA6ECC7F0006E070EE15E0050000905
:1053F00003E10401186B2CD0040EE66EE66AC50EBC
:10540000E66E0A0EE66E010EE66E1A0EE66E040EEB
:10541000E66EA6ECC7F0006E070EE15E00500009D4
:1054200004E10401010E186F13D00401070E186F78
:105430008351E96EEA6AD890E936EA367F0EE926AA
:10544000040EEA22070EEF6E0D01736BA5EF34F028
:105450000301A66B0301A46BA56B0301A26BA36BF5
:105460000301200EA16F04018351E96EEA6AD8900E
:10547000E936EA367F0EE926040EEA22EE52EFCF35
:10548000A0F378EC0DF0F3CF6DFDF4CF6EFD0301CA
:10549000A66B6DCDA4F36ECDA5F30301A26BA36B38
:1054A00003013F0EA16F04018351E96EEA6AD890AF
:1054B000E936EA367F0EE926040EEA22EE52EFCFF5
:1054C000A0F378EC0DF0F3CF6FFDF4CF70FD0D017C
:1054D0006F516D5D70516E5901E204D06FCD6DFD5D
:1054E00070CD6EFD590ED8806D55000E6E5513E2CD
:1054F0000401050E186F8351E96EEA6AD890E93607
:10550000EA367F0EE926040EEA22070EEF6E0D0141
:10551000736BA5EF34F06DCD7EF36ECD7FF3030199
:105520001A0E7C6F040E7D6F04018351E96EEA6AE6
:10553000D890E936EA367F0EE926040EEA22EE52CA
:10554000EFCF7BF329EC08F0F3CF6FFDF4CF70FDC4
:105550001A0E0D016F25E96E040E7021EA6EEF6AD6
:1055600007011A0EE36F040EE46F0BEC38F01A0E0D
:10557000E66E040EE66EBBECC8F0E552E552F3CFE2
:105580006FFDF4CF70FD0B0EE66EE66ABA0EE66EA6
:105590000A0EE66E010EE66E1B0EE66E040EE66E59
:1055A000A6ECC7F0006E070EE15E0050000920E196
:1055B00005011B0E006F040E016F0FEC3EF004019D
:1055C000176F185103E1080E186F02D0090E186FFB
:1055D0008351E96EEA6AD890E936EA367F0EE92609
:1055E000040EEA22020EEF6E0D01736BA5EF34F08C
:1055F0006FCDE9FF70CDEAFFE906000EEA5A1A0EF8
:10560000E926040EEA22EF502F0809E000011B0EE4
:10561000CF6F040ED06F95EC59F00401146FFF0E9C
:105620000401145D4CE16FCDE9FF70CDEAFFE9069E
:10563000000EEA5A1A0EE926040EEA22EF502F084D
:105640000EE00D016FCDE9FF70CDEAFF6F2B000E6C
:1056500070231A0EE926040EEA222F0EEF6EB00E0A
:10566000E66E0A0EE66E010EE66E1A0E0D016F254D
:10567000006E040E7021016E00C0E6FF01C0E6FF5F
:10568000A2ECC8F0026E050EE15E0250B00EE66EAE
:105690000A0EE66E010EE66EC9ECC8F0E552E55260
:1056A000E5521F500D016F272050702300011B0E83
:1056B000CF6F040ED06F95EC59F00401146F1A0EE1
:1056C0000D016F25746F040E7021756F010E745FEC
:1056D000000E755B1A0E741902E1040E75190CE0C8
:1056E00074CDE9FF75CDEAFFEF502E0801E104D03B
:1056F0007407000E755BEED7742B000E7523040142
:10570000196B0B0EE76E1919E8AE02D0E73402D020
:10571000E750195D42E21D0E006EB40E016E010EDF
:10572000026E19C403F0046A056A03AE02D004686D
:105730000568030E246E256A266A03C01FF004C0A4
:1057400020F005C021F075ECD9F01CC003F01DC09D
:1057500004F01EC005F000500324F36E0150042035
:10576000F46E02500520F86EF4CFF7FFF3CFF6FF8A
:105770000900F5CF72F70900F5CF73F70800F5CFF0
:1057800074F774CD70F775CD71F763EC9FF0000975
:1057900001E103D00401192BB4D705011B0E006FE2
:1057A000040E016F0FEC3EF00401176FFF0E145D45
:1057B00018E014C4F2F047EC62F0F350020B11E071
:1057C00014C4FDF075EC64F0F3CFD4F0F4CFD5F051
:1057D000010E0001D427000ED52327EC5CF0040154
:1057E000156F0301A66B0301A46BA56B0301A26BEC
:1057F000A36B0301200EA16F04018351E96EEA6AD5
:10580000D890E936EA367F0EE926040EEA22EE52F7
:10581000EFCFA0F378EC0DF0F3CF6DFDF4CF6EFD7C
:105820000D016D516E115BE00401010E166F030155
:10583000710E796F0D0E7A6F04018351E96EEA6A79
:10584000D890E936EA367F0EE926040EEA22EE52B7
:10585000EFCF78F3D3EC07F00D016D07000E6E5B10
:10586000620E6D5D000E6E5913E30401050E186F94
:105870008351E96EEA6AD890E936EA367F0EE92666
:10588000040EEA22070EEF6E0D01736BA5EF34F0E4
:105890006DCD7EF36ECD7FF303011A0E7C6F040E87
:1058A0007D6F04018351E96EEA6AD890E936EA36E1
:1058B0007F0EE926040EEA22EE52EFCF7BF329ECAD
:1058C00008F0F35004011027F450112310C4E9FF2D
:1058D00011C4EAFF102B000E1123260EEF6E0301F8
:1058E000A66B0301A46BA56B0301A26BA36B030161
:1058F0000A0EA16F04018351E96EEA6AD890E93675
:10590000EA367F0EE926040EEA22EE52EFCFA0F32C
:1059100078EC0DF0F3CF6DFDF4CF6EFD010E0D01AF
:105920006D2503017E6F000E0D016E2103017F6F57
:1059300003017C6B7D6B04018351E96EEA6AD890A8
:10594000E936EA367F0EE926040EEA22EE52EFCF60
:105950007BF329EC08F004018351E96EEA6AD890E0
:10596000E936EA367F0EE926040EEA22020EEF6ED1
:105970000301A66B0301A46BA56B0301A26BA36BD0
:1059800003010A0EA16F04018351E96EEA6AD890FF
:10599000E936EA367F0EE926040EEA22EE52EFCF10
:1059A000A0F378EC0DF0F3CF6DFDF4CF6EFD0D019B
:1059B0006D1D01E16E1D64E104018351E96EEA6A27
:1059C000D890E936EA367F0EE926040EEA22EE5236
:1059D000EFCF80F3DCEC08F0F3CF00F0F4CF01F070
:1059E0000050011011E10401050E186F8351E96E9A
:1059F000EA6AD890E936EA367F0EE926040EEA22F2
:105A0000070EEF6E0D01736BFDECD8F00401085129
:105A10001E5C006E09511F58016E0A512058026E1B
:105A20000B512158036E0334000E031809E6D88089
:105A3000000E0054000E0154000E0254000E0354D8
:105A40001EE28351E96EEA6AD890E936EA367F0EA3
:105A5000E926040EEA22EE52EFCF50F3B9EC03F040
:105A600004018351E96EEA6AD890E936EA367F0E7E
:105A7000E926040EEA220B0EEF6E0D01736B44D182
:105A8000FDECD8F01EC008F41FC009F420C00AF4D1
:105A900021C00BF48B0E04010827D20E09231A0E25
:105AA0000A23000E0B230D01010E6D1901E16E5149
